:0600000002006B021B5F11
:03000B00021D04CF
:03001300021BB21B
:01001B0032B2
:03002300021AC7F7
:03002B000222248A
:01003300329A
:03003B00021C059F
:03004300021A8816
:01004B003282
:03005300021B137A
:01005B003272
:0300630002214334
:03006600021C5920
:02006900E4733E
:0D006B007581381224E3E58260030200660F
:10007800791EE94400601B7A01902F01781F75A052
:1000880002E493F2A308B8000205A0D9F4DAF275E5
:02009800A0FFC7
:06009A00E478FFF6D8FD3A
:1000A0007800E84400600A790A75A001E4F309D8F1
:1000B000FC7815E84401600C790290010AE4F0A391
:0400C000D8FCD9FA95
:0200C400C20276
:0E00C6007808E4F608F608F608F6780C7600DE
:0200D400C20662
:0200D600C2075F
:0300D800020066BD
:1000DC00E58290011EF090011CE0FF90011EE0FEF5
:1000EC0090011DE0FD7C00BC060050628C027B0080
:1000FC00C007C006C005C004C002C00390000312B4
:10010C002017AA82AB8315811581D004D005D006A7
:10011C00D007EA240AF582EB3401F583EFF08C0367
:10012C00EB75F003A4FB04F93395E0FAE9240AF526
:10013C0082EA3401F583EEF00B0BEB3395E0FAEB2E
:10014C00240AF582EA3401F583EDF00C80997E0ADD
:10015C007F017D007C004305128E828F838DF0EC35
:10016C000222B075D70074FC55D64402F5D6900225
:10017C0021E4F022E58290011FF07E007F009002C6
:10018C0021E060200EBE00010F900005C007C006E4
:10019C00121E72D006D007C3EE9450EF94C340DE0B
:1001AC007582002290011FE0F5D79002217401F0B6
:1001BC0053D6FC7582012275E200C2AF758900909E
:1001CC00C350121E7290C350121E7212380080FE61
:1001DC0090013674FFF0900137F0900138E4F09004
:1001EC0000C8120B62E582602B900136E0FFBFFF66
:1001FC000280219001C77436F07401A3F0E4A3F0DF
:10020C009001CA7408F0E4A3F090009575F0001208
:10021C001C6880679000C81209C0E582605C900180
:10022C00CFE4F09001D07409F0E4A3F09000947541
:10023C00F000121CDC900137E0FF7E00749DC39F20
:10024C00FF74009EFE7D00900137E0FC7B00900166
:10025C00C77438F07401A3F0E4A3F09001CAECF079
:10026C00EBA3F08F828E838DF0121C689000957436
:10027C0010F09000967404F08001229000947402A7
:10028C00F07582090201801213CEE5826008121308
:10029C00D5121F3B80F1121FCEE5826008121FE4BD
:1002AC0012138180F10213589001CFE4F09001D029
:1002BC007440F0E4A3F090009475F000121CDC90F4
:1002CC000055E0FFBF01028063BF0202801ABF032A
:1002DC000302035DBF0403020393BFFF028003020A
:1002EC0003C81201C30203CF9001C77456F0740007
:1002FC00A3F0E4A3F09001CA7410F0E4A3F0900111
:10030C002075F000121C681208089001C77420F0C8
:10031C007401A3F0E4A3F09001CA7410F0E4A3F00C
:10032C0090009575F000121C680203CF900056E007
:10033C00FF900057E0FE900058E0FD90011CEEF09D
:10034C0090011DEDF08F821200DC9000957490F0FE
:10035C00227F00BF2000506B8F057E0074412DFD65
:10036C00E43EFEED2454FDEE3400FE8F82C007C047
:10037C0006C005121A78AC82D005D006D0078D8243
:10038C008E83ECF00F80CC7F00BF200050268F05B1
:10039C007E0074022DFDE43EFEED2454F582EE3415
:1003AC0000F583E09001C6F08F82C007121A42D08C
:1003BC00070F80D59000957490F0800790022374FD
:1003CC0001F0229000947403F07582400201809039
:1003DC0001CFE4F09001D07440F0E4A3F0900094CD
:1003EC0075F000121CDC900055E0FFBF0502801573
:1003FC00BF06030204BBBF070302056DBF0803025F
:10040C0006280206F39001C77456F07400A3F0E4BA
:10041C00A3F09001CA7403F0E4A3F090013675F0D8
:10042C0000121C689000C8120B62E58260389001C3
:10043C0036E0FFBFFF02802E9000957402F0900012
:10044C00967412F09001C77436F07401A3F0E4A313
:10045C00F09001CA7412F0E4A3F090009775F000CC
:10046C00121C680206F99000C81209C0E5826036B9
:10047C009000957403F0900137E0900096F0900195
:10048C0037E0FF7E009001C77438F07401A3F0E4EC
:10049C00A3F09001CAEFF0EEA3F090009775F00076
:1004AC00121C680206F99000957401F00206F9908E
:1004BC0001C77456F07400A3F0E4A3F09001CA7461
:1004CC0008F0E4A3F090013475F000121C687F0072
:1004DC0090005EE0FEC3EF9E50318F06740A2EFE34
:1004EC003395E0FDEE2432FEED3401FD8F037C00EC
:1004FC00740B2BFBE43CFCEB2454F582EC3400F540
:10050C0083E0FC8E828D83F00F80C590005EE0F559
:10051C0082120A3CE5826040900057E0900135F071
:10052C00120A9FE58260289001C77433F07401A30E
:10053C00F0E4A3F09001CA7410F0E4A3F0900096DC
:10054C0075F000121C689000957490F00206F990FA
:10055C0000957482F00206F99000957481F0020601
:10056C00F99001C77456F07400A3F0E4A3F0900165
:10057C00CA7408F0E4A3F090013475F000121C6802
:10058C007F0090005EE0FEC3EF9E50318F06740A30
:10059C002EFE3395E0FDEE2432FEED3401FD8F038B
:1005AC007C00740B2BFBE43CFCEB2454F582EC3408
:1005BC0000F583E0FC8E828D83F00F80C590005E89
:1005CC00E0F582120A3CE5826049900057E0900108
:1005DC0035F090005EE0245FFFE43400FE9001C72C
:1005EC00EFF0EEA3F0E4A3F09001CA7410F0E4A3D2
:1005FC00F090013675F000121C68120AFCE582605E
:10060C00099000957490F00206F99000957483F0AF
:10061C000206F99000957481F00206F99001C774F6
:10062C0056F07400A3F0E4A3F09001CA7408F0E44F
:10063C00A3F090017375F000121C6890005EE090BE
:10064C00017CF090005FE090017DF0900060E09004
:10065C00017FF0900061E0900180F0120BFEAF8200
:10066C00C374808FF063F08095F040030206EB902A
:10067C000062E060439001C77481F07401A3F0E460
:10068C00A3F09001CA7410F0E4A3F090012075F06F
:10069C0000121C681208089001C77420F07401A3A2
:1006AC00F0E4A3F09001CA7410F0E4A3F09000956C
:1006BC0075F000121C68801F9001C77481F07401E2
:1006CC00A3F0E4A3F09001CA7410F0E4A3F090003E
:1006DC009575F000121C689000957490F0800E9047
:1006EC0000957482F080069000947470F0900094E1
:1006FC007403F0758240120180900223E4F0229082
:10070C000054E0FFBF012E900222E0FFBF010280E7
:10071C00069002227401F0900055E0FF900056E024
:10072C00FE900057E0FD90011CEEF090011DEDF0E5
:10073C008F821200DC900054E0FFBF030E90022267
:10074C00E06005900222E4F00202B42290C200752F
:10075C00F001E4121F0412129A120CC875821012C6
:10076C0009461208DA90011C74FFF090011DF07517
:10077C0082FF1200DC9003E8E4F5F0121DC17582D3
:10078C0001121A78E582900222F0758200121A7812
:10079C00E582601090011C74FFF090011DF07582D1
:1007AC00FF0200DC90011CE4F090011DF07582004A
:1007BC000200DC900222E0FFBF0202801E1213CE68
:1007CC00E58260179002227402F090011C74FFF015
:1007DC0090011DE4F07582FF1200DC900222E0FF14
:1007EC006010BF01028005BF021180030201DC0210
:0C07FC000293900223E060030203DB2262
:100808007F00BF10005023EF2420FDE43401FE8D4B
:10081800828E83E07B0024E7F582EB342CF583E4B9
:1008280093FC8D828E83F00F80D890012FE0FFC457
:10083800540F2407FE75F005A4FD9001302FF08EAB
:1008480007753400C3E5349F400122900130E0244D
:10085800FBF090012EE0900131F07D00BD0F0050BB
:100868002EED2420FBE43401FC8B828C83E0FAC457
:10087800035407F9900131E0541FC40354F8F842B7
:10088800018B828C83E9F0900131EAF00D80CD90E4
:100898000130E0FD7C00BC0F005031C007EC242083
:1008A800FAE43401FB74075DF9E424E7F8E9342439
:1008B800F98A828B83E0FE7F0028F582EF39F58381
:1008C800E4938A828B83F00CD00780CA053402082F
:0108D8004CD3
:1008DA009001327414F09001337401F09001347471
:1008EA0014F09001357401F09001987404F09001AD
:1008FA0099E4F0A3F0A3F090019CF090013275F016
:10090A0000120D3DE5826004758200229001A174F7
:10091A0040F09001A274E8F07403A3F090013275DC
:10092A00F000120ED8AE82AF83C3E49E74808FF0BB
:10093A0063F08095F09200E433F58222E58290011B
:10094A0091F09001327432F09001337405F0900105
:10095A003474FFF09001357401F0900191E0900138
:10096A0036F09001987405F0900199E4F0A3F0A391
:10097A00F090019CF090013275F000120D3DE58275
:10098A006004758200229001A17440F09001A27463
:10099A00E8F07403A3F090013275F000120ED8AE9D
:1009AA0082AF83C3E49E74808FF063F08095F092E7
:1009BA0001E433F58222AF83E582900192F0EFA33E
:1009CA00F0900132744AF09001337401F0900134CE
:1009DA00E4F09001987403F0900199E4F0A3F0A375
:1009EA00F090019CF090013275F000120D3DE58205
:1009FA00600475820022900192E0FEA3E0FF90015C
:100A0A00A17440F09001A2EEF0EFA3F090013275CC
:100A1A00F000120ED8AE82E58330E7047582002218
:100A2A00900132E0FFBF01028004758200227582C4
:100A3A000122E582900194F09001327440F0900115
:100A4A00337401F0900194E0FF900198740A2FF03A
:100A5A00900199E4F0A3F0A3F090019CF090013288
:100A6A0075F000120D3DE582600475820022900146
:100A7A00A17440F09001A274E8F07403A3F090010D
:100A8A003275F000120ED8900132E06004758200CF
:100A9A0022758201229001327440F0900133740170
:100AAA00F09001347430F09001987404F090019938
:100ABA00E4F0A3F0A3F090019CF090013275F000ED
:100ACA00120D3DE5826004758200229001A17440F6
:100ADA00F09001A274E8F07403A3F090013275F06B
:100AEA0000120ED8900132E06004758200227582ED
:100AFA0001229001327440F09001337401F09001A8
:100B0A003474A0F09001987414F0900199E4F0A361
:100B1A00F0A3F090019CF090013275F000120D3DA7
:100B2A00E5826004758200229001A17440F0900170
:100B3A00A274E8F07403A3F090013275F000120E6B
:100B4A00D8E58330E70475820022900132E0600420
:100B5A007582002275820122AF83E582900195F0A9
:100B6A00EFA3F0900132744AF09001337401F090CF
:100B7A000134F0900135E4F0900139F09001987455
:100B8A0008F0900199E4F0A3F0A3F090019CF09092
:100B9A00013275F000120D3DE58260047582FF2274
:100BAA00900195E0FEA3E0FF9001A17416F0900178
:100BBA00A2EEF0EFA3F090013275F000120ED8AE5B
:100BCA0082E58330E7047582FE22900132E0FF70ED
:100BDA0003F58222BF010280047582FD229001344E
:100BEA00E0FFBF12028009BF140280047582FC2252
:100BFA00758201229001727406F090017B7401F0F3
:100C0A0090017EF09001327440F09001337401F04B
:100C1A00900134C4F09001987403F09001997472B1
:100C2A00F07401A3F0E4A3F090019C740FF090011A
:100C3A003275F000120D3DE58260047582FF229044
:100C4A0001A17440F09001A274C8F0E4A3F09001ED
:100C5A003275F000120ED8AE82E58330E704758251
:100C6A00FE22900132E0543F60047582FD22900119
:100C7A0033E0FFBF1D0280047582FB2290013DE034
:100C8A00700690013EE060047582FA227F00BF1070
:100C9A00005026EF2481FDE43401FE8F04740E2CEB
:100CAA00FC3395E0FBEC2432F582EB3401F583E06A
:0D0CBA00FC8D828E83F00F80D575820122A3
:100CC800900197E4F0758255121F3B758255121FEB
:100CD8003B7E007F00C3EE940EEF64809480501535
:100CE800758200C007C006121F3BD006D0070EBE93
:100CF80000E30F80E07582FF121F3B758203121F0D
:100D08003B7582FD121F3B7582D4121F3B758214FE
:100D1800121F3B758201121F3B758217121F3B750C
:100D28008200121F3B121FCE121FCEE582600512F1
:100D38001FE480F422AFF0AE83E58290019DF0EECF
:100D4800A3F0EFA3F0121FCE121FCEE582600512AA
:100D58001FE480F490019DE0FDA3E0FEA3E0FF8D79
:100D6800828E838FF012234C900197F0758200C019
:100D780007C006C005121F3B758200121F3B758213
:100D8800FF121F3B90019CE0FC900198E0FB2CFABD
:100D98000A8A82C004C003C002121F3BD002EAF4D0
:100DA800FA0A8A82121F3B7582D4121F3BD003D0E5
:100DB80004D005D006D0079001A074D4F08D108E11
:100DC800118F1279007A008B007F00C3E998EA64DA
:100DD800808FF063F08095F05033C003E92510F858
:100DE800EA3511FBAF1288828B838FF012234CF502
:100DF80082C004C003C002C001121F3BD001D00250
:100E0800D003D00409B900010AD00380BA90019D2B
:100E1800E0FDA3E0FEA3E0FF7A00C3EA9B501FC0F9
:100E280003EA2DF8E43EF98F03888289838BF01258
:100E3800234CF89001A0E028F00AD00380DC900150
:100E480099E0FDA3E0FEA3E0FF7A007B008C007927
:100E580000C3EA98EB648089F063F08095F050391C
:100E6800C004EA2DF8EB3EF98F04888289838CF060
:100E780012234CF582C007C006C005C004C003C0D9
:100E880002121F3BD002D003D004D005D006D007F1
:100E98000ABA00010BD00480B47B00C3EB9C501B42
:100EA800EB2DF8E43EF98F02888289838AF01223B9
:100EB8004CF89001A0E028F00B80E09001A0E0F44D
:100EC800FF0F8F82121F3B758200121F3B0210CD4D
:100ED800AFF0AE83E5829001A4F0EEA3F0EFA3F0AB
:100EE8009001A2E0FEA3E0FF9001BA7403F0E4A32E
:100EF800F09001BCEEF0EFA3F09001A775F000C0F0
:100F080007C006121147AD82D006D007C374808D82
:100F1800F063F08095F0400490FFFE229001A7E076
:100F280070109001A8E0700A9001A9E0FDBDFF02D1
:100F3800800490FFFD229001BA7402F0E4A3F090BF
:100F480001BCEEF0EFA3F09001AA75F000C007C055
:100F580006121147AD82D006D007C374808DF063A6
:100F6800F08095F0400490FFFE229001AAE0FD90E9
:100F780001ABE02D600490FFFD221D1D9001AAED3C
:100F8800F0E0FD9001A1E0C39D500490FFFC229089
:100F98000197E09001AC04F09001BA7402F0E4A368
:100FA800F09001BCEEF0EFA3F09001A775F000C03F
:100FB80007C006121147AD82D006D007C374808DD2
:100FC800F063F08095F0400490FFFE229001A7E0C6
:100FD800FDBDD50F9001A8E0FD9001ACE0FCB50582
:100FE80002800490FFFD229001A4E0FAA3E0FBA395
:100FF800E0FD9001AAE09001BAF0E4A3F09001BCF2
:10100800EEF0EFA3F08A828B838DF0C007C006C094
:1010180004121147AD82D004D006D007ED3395E015
:10102800FB9001AAE0F97A00EDB50106EBB50202E2
:10103800800490FFFE229001AD74D52CF09001A49D
:10104800E0FBA3E0FCA3E0FD7A009001AAE0F9C36D
:10105800EA995023C006C007EA2BF8E43CF98D074B
:10106800888289838FF012234CF89001ADE028F034
:101078000AD007D00680D39001BA7402F0E4A3F036
:101088009001BCEEF0EFA3F09001A775F0001211EB
:1010980047AF82C374808FF063F08095F04004906E
:1010A800FFFE229001A7E0FF9001ADE02F700690AF
:1010B80001A8E0600490FFFD229001AAE0FF7E00F5
:1010C8008F828E83229001AEE4F09001AFF0900100
:1010D800B014F09001B1E4F09001B214F09001B3B3
:1010E800E4F09001BA7406F0E4A3F09001BC740A2D
:1010F800F0E4A3F09001B475F000121147AF82C379
:1011080074808FF063F08095F040047582FE229021
:1011180001F474AEF07401A3F0E4A3F09001F77445
:1011280006F0E4A3F09001B475F000122145E582C1
:101138008583F045F060047582FF2275820022AF36
:10114800F0AE83E5829001BEF0EEA3F0EFA3F0903D
:1011580001C1E4F0A3F09001C3F0A3F09001BCE05A
:10116800FEA3E0FF9001BEE0F519A3E0F51AA3E0A5
:10117800F51B9001BAE0F9A3E0FAE4F513F514C3FE
:10118800E51399E51464808AF063F08095F04003D4
:10119800021294C007C006C002C001121D848582D5
:1011A8001585831685F017F518D001D002D006D022
:1011B80007C007C006C002C001121FCEE582D001D9
:1011C800D002D006D007601FC007C006C002C00109
:1011D800121FE4A882D001D002D006D0079001C324
:1011E800E8F0E4A3F0804DEE4F60C6C001C002C035
:1011F80007C006121D84A882A983AAF0FDD006D0D4
:1012080007E8C39515F51CE99516F51DEA9517F538
:101218001EED9518F51F8E028F037C007D00C3E537
:101228001C9AE51D9BE51E9CE51F9DD002D0015030
:10123800030211B99001C3E0FCA3E0FD30E71A9066
:1012480001C1E0F8A3E09001C1E0F5F0A3E045F0AA
:1012580060038882227582FE22C001C002E5132540
:1012680019F8E514351AFAAB1B88828A838BF0ECDF
:10127800121EE20513E4B5130205149001C1E5132B
:10128800F0E514A3F0D002D001021187AF138F82CA
:011298002233
:10129A001219D9121A030219F290022BE4F0C202AF
:1012AA00227F00C3E5DB9407920340067D077E0098
:1012BA008004ADDB7E008F037C00C3EB9DEC648071
:1012CA008EF063F08095F05017EF2424FDE4340289
:1012DA00FE8F82758300E0FC8D828E83F00F80C3BF
:1012EA00227F008F057E00C3ED9407EE940050180C
:1012FA008F057E00EF2424F582E43402F583E0FCB6
:10130A008D828E83F00F80DB9000072290022D746D
:10131A0001F0227E007F003002200EBE00010F90F5
:10132A000005C007C006121E72D006D007C3EE948D
:10133A0050EF94C340E17582002275820122753410
:10134A000090022DE0600375340185348222200268
:10135A002590022EE0FF601E8FD553D4FCD202BF27
:10136A00400F12131DE582600875D50053D4FCD2D4
:10137A000290022EE4F022AF8290022DE06041C07A
:10138A000712131DE582D0077003F5822290022E00
:10139A00E0FEBE400050207D0074402EFEE43DFD7C
:1013AA00EE2414F582ED3400F583EFF090022EE07E
:1013BA002401F075820122C007121358D00780BF9A
:1013CA007582002290022BE0F5822290022BE070B7
:1013DA0003F5822290022CE02414F582E43400F50D
:1013EA0083E0FF90022CE004F090022BE014F0E07E
:1013FA00700353D4F38F822275D50074FC55D444FC
:10140A0002F5D4C2022230DE1990022BE5DBF090FD
:10141A00022CE4F090022BE0600874F355D44408DF
:03142A00F5D422D4
:10142E00AFDBBF0802800302182A900007E0FE7FA0
:10143E0000900006E0FD7C004FF522EC4EF5237F78
:10144E0000900001E0F524900000E0FE5460605B27
:10145E00900000E0FE5306607D00BE2005BD000238
:10146E00800BBE4041BD003E7FFF02182C7409B5B3
:10147E00240302182C7420B5240302182C7421B5F1
:10148E00240280077422B52418800C1212EBAD8250
:10149E00AE838D0702182CC007121316D007021840
:1014AE002C7FFF02182C7FFF02182CE52424F45009
:1014BE0003021826E524240B83F582E524241083E9
:1014CE00F583E473083626F62600EA260D2A2C2C20
:1014DE00181618161816141816161818900003E079
:1014EE00FEBE01028012BE02028018BE0302801DE3
:1014FE00BE220280750215907525E775262D7F1286
:10150E000215927525F975262D7F6680779000025B
:10151E00E0700875255F75262E8044900002E0FE6F
:10152E00BE010875259F75262E8034900002E0FEC0
:10153E00BE020875257175262E8024900002E0FEED
:10154E00BE030875256375262E8014900002E0FEFA
:10155E00BE040875258775262E80047FFF8025859D
:10156E002582852683E493FF801A900002E0700E98
:10157E007525AD75262E902E4FE493FF80067FFFC6
:10158E0080027FFFBFFF0302182C8F057E00C3ED84
:10159E009522EE952350048D228E23AD22AE23C3C9
:1015AE00ED9408EE9400920440067B087C008004C3
:1015BE00AB22AC238B077C00C3EC9F50198C027BB3
:1015CE0000EC2525F582E43526F583E493F98A822D
:1015DE008B83F00C80E28F037C00EDC39BFDEE9CB1
:1015EE00FE8D228E23EF2525F525E43526F52602E0
:1015FE00182C900002E0FE8E2275230002182C900B
:10160E0001C5E0900000F0AD22AE23C3ED9401EED3
:10161E009400500302182C7F0102182C900002E057
:10162E00FE9001C5F002182C900000E0541F702FA0
:10163E00900003E0FD7E00900002E0FC7B0042067D
:10164E00EB4205BE0114BD0011902E00E493FE3056
:10165E00E50302182C7FFF02182C7FFF02182C9036
:10166E000000E0FE53061F7D00BE0277BD007490A1
:10167E000004E0FEBE0102805FBE02028049BE038E
:10168E00028033BE0402801DBE81028040BE8202F3
:10169E00802ABE83028014BE844474BC55DE44028C
:1016AE00F5DE02182C53DE7302182C74BC55D6448A
:1016BE0002F5D602182C53D67302182C74BC55D4CE
:1016CE004402F5D402182C53D47302182C74BC5552
:1016DE00D24402F5D202182C53D27302182C7FFF7B
:1016EE0002182C7FFF02182C900000E0541F702F60
:1016FE00900003E0FD7E00900002E0FC7B004206BD
:10170E00EB4205BE0114BD0011902E00E493FE3095
:10171E00E50302182C7FFF02182C7FFF02182C9075
:10172E000000E0FE53061F7D00BE0205BD000280D4
:10173E0003021804900003E0FD7E00900002E0FC1E
:10174E007B004206EB4205EE4D600302180090004E
:10175E0005E0FD7E00900004E0FC7B004206EB42BB
:10176E0005BE0106BD00030217F4BE0205BD000250
:10177E008060BE0305BD00028044BE0405BD0002AC
:10178E008028BE8105BD00028052BE8205BD0002CA
:10179E008036BE8305BD0002801ABE8451BD004E48
:1017AE0074BF55DE4403F5DE8074747F55DE440C41
:1017BE00F5DE806A74BF55D64403F5D68060747F1B
:1017CE0055D6440CF5D6805674BF55D44403F5D483
:1017DE00804C747F55D4440CF5D4804274BF55D2DE
:1017EE004403F5D28038747F55D2440CF5D27FFF76
:1017FE00802C7FFF80287FFF8024900000E4F090F3
:10180E000001F0AD22AE23C3ED9402EE940040042D
:10181E007F02800AAF2280067FFF80027FFFBFFF1C
:10182E00077524FF75DCCF22EF24F740068FDD7598
:10183E00DCC02275DD0075DCC0227405B524028083
:10184E005D7406B52466AE22AF23C3EE9408EF9402
:10185E0000920540067C087D008004AC22AD237DFD
:10186E0000C3ED9C50198D027B00ED2525F582E419
:10187E003526F583E493F98A828B83F00D80E28C12
:10188E00037D00EEC39BFEEF9DFF8E228F23EC2582
:10189E0025F525E43526F5268CDD63DC4022E5E3CF
:1018AE005480FFE5224FF5E375DC022275DD0075ED
:1018BE00DC02227420B5240D30DE1C1212AB75DD55
:1018CE000085DCDC227409B5240775DD0063DC803D
:1018DE002275DD0043DC022275D30074FC55D24420
:1018EE0002F5D22220D9030219AFE5D9540FFFAD6C
:1018FE00D95305307E00BD0005BE0002801CBD1010
:10190E0005BE00028043BD2005BE00028050BD30E2
:10191E0006BE00030219950219ADEF24FB50030217
:10192E0019ADEF2F2F901937730219460219AD0218
:10193E00194C0219520219AD1218C10219AD121426
:10194E00100219AD12070B8056EF24FB4051EF2FFA
:10195E009019627380498047804580438041EF240F
:10196E00FB403CEF2F901977738008800B800E8020
:10197E0011802C12184880271218E68022121402A9
:10198E00801D12016F8018EF24FB4013EF2F90196A
:10199E00A0738008800980078005800312142EC270
:1019AE00D930D81A75DC0275D21275D41275E300CF
:1019BE00C2DAC2D9C2D89001C5E4F01212A310DA6D
:1019CE000122E5DA20E20375D8FF2275E20053E228
:1019DE007F43E22975E30053E2BF53D1FB75D180FB
:1019EE0043D1012243E10443E10243E10143D81F05
:1019FE00D2EAD2AF227E007F008EEC8FED7E0A7F80
:101A0E00008EEE8FEF7E147F008EE48FE57E547F86
:101A1E00008EE68FE775EBCC75D21275D41275D6A3
:101A2E001275EA4075DC0275DD0075D30075D500C0
:101A3E0075D70022AF82BF800040012275A1557577
:101A4E00A1AA43B10475A1007585C0EF2FF584904E
:101A5E0001C6E0F58EE58630E60375869A75A155CA
:101A6E0075A1AA53B1FB75A10022AF827585C0EF97
:0A1A7E002FF58475868E858E822276
:101A8800C021C0E0C0F0C082C083C007C006C00546
:101A9800C004C003C002C001C000C0D075D000128D
:101AA80018F2D0D0D000D001D002D003D004D00595
:101AB800D006D007D083D082D0F0D0E0D02132C079
:101AC80021C0E0C0F0C082C083C007C006C005C006
:101AD80004C003C002C001C000C0D075D000309857
:101AE80005122455C298309905122495C299D0D070
:101AF800D000D001D002D003D004D005D006D00742
:101B0800D083D082D0F0D0E0D02132C021C0E0C054
:101B1800F0C082C083C007C006C005C004C003C0AF
:101B280002C001C000C0D075D00030C0051220B579
:101B3800C2C030C1051220F5C2C1D0D0D000D0013A
:101B4800D002D003D004D005D006D007D083D082ED
:101B5800D0F0D0E0D02132C021C0E0C0F0C082C0B7
:101B680083C007C006C005C004C003C002C001C0CE
:101B780000C0D075D000900235E0FEA3E0FFC0079A
:101B8800C0068E828F83120069D006D007D0D0D0CD
:101B980000D001D002D003D004D005D006D007D0A1
:101BA80083D082D0F0D0E0D02132C021C0E0C0F094
:101BB800C082C083C007C006C005C004C003C002FD
:101BC800C001C000C0D075D000900237E0FEA3E08D
:101BD800FFC007C0068E828F83120069D006D00727
:101BE800D0D0D000D001D002D003D004D005D00688
:101BF800D007D083D082D0F0D0E0D02132C021C02D
:101C0800E0C0F0C082C083C007C006C005C004C0E1
:101C180003C002C001C000C0D075D00090022FE000
:101C2800FEA3E04E600E90022FE0F8A3E0F5838853
:101C380082120069D0D0D000D001D002D003D004E5
:101C4800D005D006D007D083D082D0F0D0E0D02104
:101C580032121EAD1207581207BF80FB7582002290
:101C6800AFF0AE83E5829001CCF0EEA3F0EFA3F0E5
:101C78009001CCE0F534A3E0F535A3E0F536AA34BD
:101C8800AB35AC369001C7E0F8A3E0F9A3E0FF90CC
:101C980001CAE0F537A3E0F538AD37AE381537742B
:101CA800FFB537021538ED4E6020888289838FF0A2
:101CB80012234CFEA3A882A9838A828B838CF0EE20
:101CC800121EE2A3AA82AB8380CF85348285358336
:101CD8008536F022AC82AD839001D0E0FEA3E0FF10
:101CE800BE000360121F0F9001CFE08C828D83121B
:0C1CF8001EE2A3DEFADFF88C828D83224E
:101D0400C0D075D00808B8000D09B900090ABA0096
:101D1400050BBB00010CD0D032A2AFC2AFA808A9FA
:101D240009AA0AAB0BAC8A8588F092AF30F512741D
:101D3400012C600D08B8000909B900050ABA0001B0
:101D44000BC3EC9406FCECC313FC75F07DE8A4F81B
:101D5400ADF075F07DE9A42DF9E435F0FD75F07D65
:101D6400EAA42DFAE435F0FD75F07DEBA42DFB7D9E
:101D740000EC28F582E93DF583EA3DF5F0EB3D22E0
:101D8400A2AFC2AFA808A909AA0AAB0BAC0C92AFC8
:101D940075F020E8A4A8F075F020E9A428F582A83D
:101DA400F075F020EAA428F583A8F075F020EBA4E0
:101DB40028F9A8F075F020ECA42889F02285822760
:101DC40085832885F029F52A121D1D85822B85839C
:101DD4002C85F02DF52EE52745284529452A700147
:101DE40022A827A928AA29AB2A852B2F852C308540
:101DF4002D31852E32E8494A4B60DBC003C002C056
:101E040001C000121D1DAC82AD83AEF0FFD000D026
:101E140001D002D003ECC3952FFCED9530FDEE9577
:101E240031FEEF9532FFC3EC94E8ED9403EE940099
:101E3400EF940040A118B8FF0919B9FF051ABAFFB9
:101E4400011B882789288A298B2A74E8252FF52FD6
:101E540074033530F530E43531F531E43532F5329B
:101E6400852F2B85302C85312D85322E8087AE82AF
:101E7400AF83C374019EE49F40022200C374029E98
:101E8400FE74009FFF00BE0005BF00020022000098
:101E94000000000000000000000000000000000E30
:101EA400BE00EB0FBF00ED002275A15575A1AA7409
:101EB400F855B94406F5B975A100901388121E723D
:101EC400759E5D759D0074F055894402F58953C96A
:0D1ED400EF758C06C28DD2A9D28CD2AF2240
:101EE20020F71130F6138883A88220F509F6A8831B
:101EF2007583002280FEF280F5F0229001D3E0F596
:101F02008222AC82AD83AEF0FFC2C7D2C5D2C4C0BA
:101F120004C005C006C00790E36075F016E4122203
:101F220026AC82E58124FCF581C3E49CF5C2D2ECA7
:101F3200D2AF9001D37401F022AF82A2AFE433FE9C
:101F4200C2AF900233E0FD900234E0FCEDB5041024
:101F520020060DD2068FC1EE6002D2AF7582012239
:101F6200900233E0FD0D53050F7B007C009002349C
:101F7200E0FAEDB50235EE6002D2AF0BBB00010C08
:101F8200900005C007C006C005C004C003121E723F
:101F9200D003D004D005D006D0078B018C02C3E950
:101FA2009420EA944E40C675820022900233E024C7
:101FB200E4F582E43401F583EFF0900233EDF0EEC4
:101FC2006002D2AF758201222006FD22900231E02A
:101FD2002410FF900232E0FEEFC39EFF53070F8FE3
:101FE2008222900231E02410FF900232E0FEEFC321
:101FF2009E540F601C900232E024D4F582E4340136
:10200200F583E0FF900232E0FE0E740F5EF08F82E5
:102012002275820022C033858133C082C083E5816C
:102022002405F581AF330FE5332403F8A6070876BC
:1020320000087640E53324FCFD7E007F40E5332432
:1020420006F9A833088604E53324FCF886038CF0ED
:10205200EBA4F709A7F0E533240604F98704A833B3
:1020620008860374012DFAE43EFE8A828E838FF085
:1020720012234C8BF0A4FBE5332403F8740126FDF4
:10208200E40836FE0886078D828E838FF012234C79
:10209200FDE53324FCF886078DF0EFA42B2CF7E541
:1020A200332406F987060987078E828F8385338159
:0320B200D0332206
:1020B500900231E0FF7E000FBF00010E7410C0E0FA
:1020C500E4C0E08F828E83122368AE82158115816C
:1020D500900232E0FFEEB5070122900231E024D4F0
:1020E500F582E43401F583E5C1F0900231EEF0228A
:1020F50030064A900233E0FF900234E0FEEFB50669
:1021050005A206C20622900234E024E4F582E434F6
:1021150001F583E0F5C1900234E0FF7E000FBF00BA
:10212500010E7410C0E0E4C0E08F828E8312236834
:0E213500AE82AF8315811581900234EEF02248
:012143003269
:10214500AFF0AE83E5829001F9F0EEA3F0EFA3F0D6
:102155009001F7E0FEA3E0FF9001F7E0F5F0A3E0C2
:1021650045F07004900000221EBEFF011FEE4F6077
:1021750075C006C0079001F9E0FBA3E0FCA3E0FDF4
:102185008B008C018D02888289838AF012234CF89A
:102195009001F4E0F534A3E0F535A3E0F536A93474
:1021A500AA35AF3689828A838FF012234CF9E8B5B8
:1021B50001028006D007D006802CD007D0060BBBC5
:1021C50000010C9001F9EBF0ECA3F0EDA3F0AB34BA
:1021D500AC35AD360BBB00010C9001F4EBF0ECA374
:1021E500F0EDA3F080829001F9E0FDA3E0FEA3E00D
:1021F500FF8D828E838FF012234CFD7F009001F4BA
:10220500E0FBA3E0FCA3E0FE8B828C838EF012231F
:102215004CFB7E00EDC39BFDEF9E8D82F583223244
:10222600C033858133C082C083C0F0C0E07A007BB2
:10223600007E007F007D20A83308080808E62354A6
:1022460001FCA83308E626F608E633F608E633F678
:1022560008E633F6EA2AFAEB33FBEE33FEEF33FFFA
:10226600EC6003430201E53324FAF8C3EA96EB086F
:1022760096EE0896EF0896401CE53324FAF8EAC372
:1022860096FAEB0896FBEE0896FEEF0896FFA83343
:1022960008E64401F6DDA0A833088682088683088E
:1022A60086F008E6853381D03322ABF0A2AFE43363
:1022B600FEC2AFE0A37A0833D2954002C2957905F3
:0E22C600D9FEC295DAF1DBEBEE6002D2AF2258
:1022D40022AF82BF0200503EEF75F002A42435FD08
:1022E400740235F0FE9001FCE0FBA3E0FC8D828ECD
:1022F40083EBF0ECA3F0BF00028005BF0118800B54
:102304009001FEE024FF9288D2A8229001FEE0FF13
:1023140024FF928AD2AA22AF82BF02005028BF00B3
:10232400028005BF01088004C2A88002C2AAEF751A
:10233400F002A42435FE740235F0FF8E828F83747C
:07234400D4F07422A3F02283
:10234C0020F71430F6148883A88220F507E6A883BA
:10235C0075830022E280F7E49322E022C03385816A
:10236C0033AE82E583FF33E433FD6009C3E49EFBA7
:10237C00E49FFC80048E038F04E53324FCF808E60C
:10238C0030E70FE53324FCF8C3E496FE08E496FF2F
:10239C00800AE53324FCF88606088607C005C006CB
:1023AC00C0078B828C831223D6AE82AF8315811526
:1023BC0081D005ED600DC3E49EFCE49FFD8C828D05
:1023CC008380048E828F83D03322C033858133AED9
:1023DC0082AF837D007C00E53324FCF808E62354AF
:1023EC0001FB702FE53324FCF8E626F608E633F6FD
:1023FC00E53324FCF8C3EE96EF08965011E5332430
:10240C00FCF808E618C313C613C608F680050C8C36
:10241C000580C4E53324FCF8C3EE96EF0896400D16
:10242C00E53324FCF8EEC396FEEF0896FFE5332463
:10243C00FCF808E618C313C613C608F68D041DEC89
:09244C0070D18E828F83D03322FF
:10245500900239E0FF7E000FBF00010E7410C0E04E
:10246500E4C0E08F828E83122368AE8215811581C8
:1024750090023AE0FFEEB5070122900239E024FF11
:10248500F582E43401F583E599F0900239EEF02206
:1024950030074A90023BE0FF90023CE0FEEFB506B4
:1024A50005A207C2072290023CE0240FF582E4341E
:1024B50002F583E0F59990023CE0FF7E000FBF0036
:1024C500010E7410C0E0E4C0E08F828E8312236891
:0E24D500AE82AF831581158190023CEEF0229D
:0424E30075820022DC
:1024E700243CBA36E385A4D0934373B9706EC9F11F
:1024F700100E9B2C97E70B636C2920FE86F3E1F502
:10250700F69FB616047B8FABB1392A1BEB5CA8ACE0
:102517003811125F893E7DCAEC53DB6D1ED281787C
:102527009646FFF9541C287A4FD3C0DCC16AF2BC27
:10253700CB57FD4AE4F0B2C79540625241E2AD493C
:10254700A6B51F02C8DA92E5B0C564764821DE0F4A
:1025570045584CDFA784CFD5154E27806B7FFC44A9
:10256700714722DD300CA13BE037A0352390327450
:10257700BF8DC2EAD650BBD9C483B43168558B5DD1
:10258700F47218B7EFF7982D010361CC0A8E130088
:10259700E814AF095175A52F1D0D658ACD66073D56
:1025A70005D84BE99D997C91D1B819C32B4269880D
:1025B700C679173A4D5BA25AFB253FBDF8EDCEE62B
:1025C70087A326A92EBE94087E67608C9C5E6FB396
:1025D7009E06FA82AEEE5977D71A9A34D456AA33A2
:1025E700F9817C00B93037D590516EF0B206FBCD3A
:1025F70039145FF81BC74A82708C921DEAC34EC814
:1026070012E6B610D32F95842542A572E58F55EFB4
:1026170086A253AEED262047DE786828E445CC3500
:10262700BC3EBB8EC0BE34AFA60964017B44F5F344
:10263700B13FA4B33280C94F6F40BF214C74E11141
:102647005EEB3D712E9D6275D41648771367AD6BAF
:102657005D0787F7A89A59768B9B1ED8EEAAE9994A
:102667002DC597F1A783FCCADCBAB84BE8891705D3
:102677000BA06523D1CE3603D7E0F291DF0E9C2C59
:102687000D66D673585CB40A4DC23BD2B7E2AC3381
:10269700DB6027BD56432404028D7D7FF6B5F4FD2C
:1026A700DD5BEC79C4221FA18854E71998947E3129
:1026B700A329E35ACB6AB0CF6D936C7A08A93C1C67
:1026C700D06350C68538C14149AB61522A9FD9189A
:1026D7001A57462B69DAFAFF0F15963A8AFE9E0CAF
:1026E70011A29AC394A051015BF7D130EE1F06D512
:1026F7007767D3C16EE76A1AA48E9F6566D60C2DDD
:10270700C6E469B7565A5760FC791EE11652F007BE
:10271700D0CDCA78C98BB38827F6E0C084CF2FA362
:1027270004008040A7FA759D4B8946222837341349
:10273700FF20B4DA08266C8FF25D7B735C4C9071D6
:10274700418A9EBB12E8556D2A254AAFBD9519A54A
:1027570031BAADD9C5A66B83C4B6A9CCF9A1B17AF4
:10276700DCC7DB2E7E7F8D4E620F0339FDB8D41890
:10277700C2EC6102531C3B7DBC1D59F58C98F16F6F
:102787009385F82C74D85E4D97AB87820A21425FF8
:102797000D5833443ADDE9FB5047C8D7819BE51B09
:1027A7001754862BEFF429320E7C2315EBE63C35C4
:1027B700E296683F0B43CEDE9CBE4F457276B5105E
:1027C700E3DF92D2A84891B9ACBF49B2996470EAE5
:1027D700F33E6314AEEDAA24FE3DCBB009383605AF
:1027E700C4F02849554AF5FD75AF2069C843866B83
:1027F700C9A8C6544CDD025BE89B597734D7C05152
:102807005FF37ED4F19081CE198A7833CD978CD639
:102817006A4B8FA480DC1A1714C5078766AD9D85A0
:10282700B2F88D98DF3E1F3F645840AC6C5C085D82
:1028370053BAFFD2A92C25ABE432389AF9CBC2910F
:1028470067D0E322292D9248B40E9905A36F0A1584
:10285700EFD5104FD8F600E6462B31578394AE03D9
:10286700EB8E1324A11E5ED126D9A7CA366E713707
:10287700EEB1FA7C7606B823BE21BC9EC1DA7A3B5C
:1028870062277BB0E56318827F0FEDA02A9CBF11FA
:10289700BDE0880D3A795256F7B6D309161B70B3C7
:1028A70042602F1CA29F72124547BBE10B018B1D93
:1028B700DEEC0C4EE9CFCC9574F4A593C7DB4DFB4A
:1028C7003565FEE739B5EA96C304414484FC6D30AB
:1028D700E2F268B7897D733DB95A50A63C61AA2ECA
:1028E7001A599CADC8E41154ED370F3AE65F3C4BDB
:1028F700B81589B1E8DA697791568BDB0624CF18CA
:10290700F8B087DF8C35CB86539DA4664A7A710A67
:102917004838FFDC8320CE9832F6D7AF705E738AD3
:1029270014721EC129790708E94346D02FDE2A4FC2
:102937003D2C50B375FC0B64AE317B61A530A09381
:10294700D2BEC255BA6CF36268FDAC3B95491F6BAA
:10295700B485F7A603EC6E9A81090C6AEE9E4EF0D9
:10296700AB2D7EA1E1BBC9BC41F2FA2E1BDD27349A
:10297700D36004B501D640F9D50247D9D8E08F2BEB
:10298700FBB7C5EB5716E5788DF400CD8239C696AF
:10299700BDBFE336450E261D63E7843EB69B22A3E3
:1029A700F58E236DC3997D9097102580D44CE274E2
:1029B700CCB25C33C7EA05123F51A8FEF11C42CAEC
:1029C700D176286F92A767A919A2445BAAEF587F0F
:1029D70021C08865B95D4D0D5AC413527C9F941769
:1029E700C72B82615BD09684D34A70A19B59339FD2
:1029F700C02014532917C50BC97B97020D3A1E7CBB
:102A07003F6B52E8753DF6E40C8A4FC35F2665734A
:102A17003123284874AAA73609B1E291045122FC50
:102A270008A605A4F1121C19EB4037C2A0411DD41A
:102A3700DC07438F47AFD12E98AB01BAF06668AC7D
:102A4700F9E769B6CB8D78871503D5DFA31A9D6A99
:102A5700EA2F944E9E42D7B83892D8BBDEDD9ABC97
:102A6700B04C79F4583EE98381FFE355FD5DB2EF41
:102A77009C6D549960DA3BECFA11D6C42AED4BAE43
:102A870013BFB9068BE01F7F5AAD90390FF3BD46D0
:102A97006C2CF2F8FED9E6720E89BE5EC6A8CFF599
:102AA700577E8CB7E1887AC81B18DB6F35D2163290
:102AB7006463A58EF7B47695867DE5A95C8500C12C
:102AC700934DFB30A2B5253410773C67712D4445F3
:102AD700560A50B3CD6280CE214924CAEE276ECC68
:102AE700A5B06DB251551FBF3E8DDD1992EA1BBDD2
:102AF700326529A48967B1906800DA0DA65954F2A6
:102B070010142F45E03B23FAD750AC93E643010A54
:102B17005C78709846A97BF395072AD374B33FA3D3
:102B27006082394E3448C01CF6C291644D3CF89D12
:102B3700359A94E37AF0F96EB912B8042D02281386
:102B470085728087DB2BF14F26A2E1497E9CCCA7BB
:102B5700B6A0D09B3677AD8B6B4A031D058A064B13
:102B6700AFE531B5D4C60C66BA83FD090FAE71B7B0
:102B77006FDC41E8178E407F6230FFA88425FB1683
:102B8700CE3744AB991EEB183A47F75F81CFED5824
:102B97002C6CFE9E57539720CA791A5A88F5699F5D
:102BA700E7D90EBE42DF56E44C22AA730B15C5EED9
:102BB700FCC7D6CBCD8CE27621E9D1ECC87DD88F86
:102BC700617C2EBCDEB475D2C4633DA15E5D6A082C
:102BD70024C927BBEF33865BD5385211F4C396C19E
:102BE700345ADB2C5957122B30C2A092BFEDBC458B
:102BF700DE279B96D3E6C5EBD8244BA421CCA8D6D9
:102C0700CE3CBAB109E0D732664A831D19CA896733
:102C17000F420771E9BB445E8517C4AE9C3F6B78D2
:102C2700E76D02A7FE33E3D90A7DEAF118877B62D5
:102C370003795223003E25B9DD16683B1F90A62A6B
:102C4700C629918A9DEF1E8476EE4F39FB111B0B27
:102C570093AD49B705E14DCBE838D055F2F70D8B69
:102C670065CDFAD49EC9814E14C826B6F9AAF58057
:102C7700F86A98AB58F3B88EB5974372A2DA64C175
:102C8700405C13B0E5BD089F1C7E8F06BE6E501AD0
:102C97002F37A1FC102E705304206348E2FD6F7A92
:102CA7007561B3353ACF5B888251D247A5A9746C59
:102CB70031947C9AC0EC150E28012DC3F0B4E48D35
:102CC700DCAC3D5F86C79522F4B2A35446D1778C1E
:102CD7000CFFAF565D36697F994CD56073DF41F6BF
:102CE70004DA79631EBDEAE30B652501CDA992EDF0
:102CF700187557308903096ADCC798A450911FB12A
:102D07000C778566CA121C67C2E01783599DD522C6
:102D17008256A89FC66048B311FCA328FB06DD5D59
:102D2700BA297A4FE8FEE910CBF3937B6C6954E735
:102D370044A2841D8DCEFFFA1A879074A1F814AAB5
:102D4700BCC0CF31B4D9BFD85E262DD0E43F19D649
:102D57008C2FAB3958726EDF3BE63CB66288DE409B
:102D6700B28F9B7C9543D19EAC9CD423E10E4B53F1
:102D770033462013341B97F7F1C3614A6F5A217FFB
:102D8700702E554105C5D776E52715EC425C4D7881
:102D9700358BEFD2EEB5BEAE023AD35FC424F0F95D
:102DA700514EEB000FFDAF3EC19A528681807EF6F1
:102DB7002BCCB97D68F2AD99A7072C7338B06BB7E8
:102DC7008E71A0F43DA60D37DB0A473616966D3295
:102DD7002A5BE24594F5A54CC88A4964BB08C9B883
:102DE70012011001EF0201083A30F08101010102DE
:102DF7000301090266000301008064080B00020258
:102E07000201040904000001020201040524001064
:102E170001042402020524060001070581030800B6
:102E27004009040100020A000004070502024000ED
:102E370000070582024000000904020002030101A5
:102E470000092110010002225400070583034000F6
:102E57000A0705030340000A040309040E0353008D
:102E670045005200490041004C00160341006B0029
:102E770061007200690020004E00450057003200D3
:102E8700180350004E00350033003200440069003B
:102E970072006500630074000E035300450049008B
:102EA7004B0041004E000600FF0903A101850315F1
:102EB7000025FF75080901953F91020902953F8199
:102EC70002C005010900A1018501150026FF007553
:102ED70008050C1969296B950391021901290395B6
:102EE700038102C006CAFF0901A101850209411534
:0A2EF7000025FF750895088102C050
:052F0100591C00000056
:0B2F060000E1000000000800000100D6
:022F11000000BE
:042F130000000000BA
:042F1700D422D422CA
:042F1B0000000000B2
:00000001FF
