:060000000200990220A39A
:03000B0002224886
:030013000220F6D2
:01001B0032B2
:0300230002200BAD
:03002B0002276841
:01003300329A
:03003B0002214956
:03004300021FCCCD
:01004B003282
:0300530002205731
:01005B003272
:03006300022687EB
:0300660002219DD7
:02006900E4733E
:10006B00E58124FCC3C8C0E0C082E608467006E503
:10007B00824583601218E58296F58208E5839642E5
:10008B008208E5F0964582D082C8D0E0C8227581FF
:0B009B005E122A27E582600302006667
:1000A6007969E94400601B7A01902AC8784675A0F0
:1000B60003E493F2A308B8000205A0D9F4DAF275B6
:0200C600A0FF99
:0600C800E478FFF6D8FD0C
:1000CE007800E84400600A799475A000E4F309D83A
:1000DE00FC78B2E84402600C7903900094E4F0A33B
:0400EE00D8FCD9FA67
:0E00F2007808E4F608F608F608F6780C7600B2
:02010000C20536
:02010200C20633
:0301040002006690
:100108009002F6E4F09002F77408F0E4A3F090038C
:100118005A75F000122220900190749EF07400A38A
:10012800F0E4A3F0900193749DF07400A3F0E4A3AD
:10013800F090019674E8F07403A3F0900198E4F04D
:10014800758200120730E58270030201C490009D99
:10015800E090019AF090019B7401F0E4A3F0A3F001
:10016800A3F090019FF09001A07454F07403A3F0E1
:10017800E4A3F090009E75F00012080FE582603C41
:100188009001A6749BF07400A3F0E4A3F0758201BB
:1001980012094DE58260259000947401F09002EEFA
:1001A800749BF07400A3F0E4A3F09002F17408F0DB
:1001B800E4A3F090035A75F0000221AC9001C1E469
:1001C800F09001C2749EF07400A3F0E4A3F09001D3
:1001D800C574A6F07400A3F0E4A3F09001C87415E8
:1001E800F07401A3F0E4A3F09001CB74C8F0E4A389
:1001F800F090FFFF120D4FAF82BF0125900094745D
:1002080001F09002EE749EF07400A3F0E4A3F09065
:1002180002F17408F0E4A3F090035A75F00002218B
:10022800AC900094E4F09002F6F09002F77408F0B5
:10023800E4A3F090035A75F000022220121F8812DE
:100248001FB2121FA175DD0075D30075D50090C2CD
:100258000075F001E4122448120518758210120680
:10026800401205D49002F6E4F09002F77480F0E4AE
:10027800A3F090009575F0001222207E007F00C345
:10028800EE9406EF64809480503DC007C006C00617
:10029800C00790000312255BAC82AD8315811581E0
:1002A800D006D007EC2417FCED3401FD8C828D8339
:1002B80074FFF08C828D83A3F08C828D83A3A3F0CE
:1002C8000EBE00BB0F80B87E177F017D007C004307
:1002D80005158E828F838DF0EC0227F49001C1E41E
:1002E800F09001C2748EF07403A3F0E4A3F09001BF
:1002F800C57496F07403A3F0E4A3F09001C8742CBD
:10030800F07401A3F0E4A3F09001CB74C8F0E4A367
:10031800F090FFFF120D4FAF82BF0125900362746A
:1003280002F09002EE748EF07403A3F0E4A3F09050
:1003380002F17408F0E4A3F090036375F000022161
:10034800AC900190746FF07403A3F0E4A3F09001F3
:10035800937473F07403A3F0E4A3F090019674E827
:10036800F07403A3F0900198E4F07582001207304E
:10037800E58270030203EE900373E090019AF09017
:10038800019B7401F0E4A3F0A3F0A3F090019FF0A7
:100398009001A07448F07403A3F0E4A3F090036FF5
:1003A80075F00012080FE58260539001A67474F08E
:1003B8007403A3F0E4A3F075820212094DE582608C
:1003C8003C9003627401F09002EE747AF07403A317
:1003D800F0E4A3F09002F1740AF0E4A3F090036350
:1003E80075F0000221AC9002F6E4F09002F7740B6D
:1003F800F0E4A3F090036275F000022220221202BA
:10040800E41204A0900001E4F5F002230575D3007E
:1004180074FC55D24402F5D290036DE4F02220DE3C
:1004280001227E007F00C3EE9406EF648094805022
:1004380052C007C006C006C00790000312255BAC77
:1004480082AD8315811581D006D007EC2417FCED09
:100458003401FD90000CE08C828D83F074012CFA3D
:10046800E43DFB90000BE08A828B83F074022CFC45
:10047800E43DFD90000DE08C828D83F00EBE00A659
:100488000F80A37E177F017D007C004305128E82BA
:100498008F838DF0EC0227F49002EDE07003F58273
:1004A800227E007F0090036DE060200EBE00010FE9
:1004B800900005C007C0061223B6D006D007C3EEC9
:1004C8009450EF94C340DE7582002290004A740174
:1004D800F07F00BF0B0050278F057E0074412DFD73
:1004E800E43EFEED240AFDEE3400FEEF2462F582C0
:1004F800E43403F583E0FC8D828E83F00F80D4759D
:0F050800D30C90036D7401F053D2FC7582012265
:1005180002144690012E7402F09002C014F090026A
:10052800C1E4F0A3F0A3F09002C4F090012E75F09E
:10053800001214BBE5826007900000E4F5F02290F9
:1005480002C97440F09002CA74E8F07403A3F090F2
:10055800012E75F000121656E58330E7079000006B
:10056800E4F5F02290012EE0FF7E007D008D048EE0
:10057800058F067F0090012FE0F8E4F9FAFBE842C6
:1005880007E94206EA4205EB42048D048E058F0610
:100598007F00900130E0F8E4F9FAFBE84207E9420D
:1005A80006EA4205EB42048D048E058F067F009013
:1005B8000131E0F8E4F9FAFBE84207E94206EA42C9
:1005C80005EB42048F828E838DF0EC2290012E740D
:1005D80014F090012F7401F09001307414F0900120
:1005E800317401F09002C07404F09002C1E4F0A3E9
:1005F800F0A3F09002C4F090012E75F0001214BB25
:10060800E5826004758200229002C97440F090026D
:10061800CA74E8F07403A3F090012E75F000121666
:1006280056AE82AF83C3E49E74808FF063F08095EA
:10063800F09200E433F58222E58290018DF090017A
:100648002E7432F090012F7405F090013074FFF091
:100658009001317401F090018DE0900132F0900228
:10066800C07405F09002C1E4F0A3F0A3F09002C4B6
:10067800F090012E75F0001214BBE58260047582BB
:1006880000229002C97440F09002CA74E8F0740322
:10069800A3F090012E75F000121656AE82AF83C3F8
:1006A800E49E74808FF063F08095F09201E433F556
:1006B8008222E58290018FF090012E7432F0900131
:1006C8002F7401F090018FE0FF90018EE0420790B7
:1006D8000130EFF09002C07403F09002C1E4F0A37F
:1006E800F0A3F09002C4F090012E75F0001214BB34
:1006F800E5826004758200229002C97440F090027D
:10070800CA74E8F07403A3F090012E75F000121675
:1007180056AE82AF83C3E49E74808FF063F08095F9
:10072800F09202E433F58222E582900199F090017B
:100738002E744AF090012F7401F0900199E0900115
:1007480030F09002C07403F09002C1E4F0A3F0A36B
:10075800F09002C4F090012E75F0001214BBE582EF
:10076800600475820022900196E0FEA3E0FF9002EB
:10077800C97440F09002CAEEF0EFA3F090012E7514
:10078800F000121656AE82E58330E7047582002227
:1007980090012EE0FFBF01028004758200229001C3
:1007A80093E0FDA3E0FEA3E0FF900133E08D828E8D
:1007B800838FF0122426900190E0FDA3E0FEA3E0D1
:1007C800FF7C00900133E0FBC3EC9B5036EC2DF925
:1007D800E43EFA8F038C00740628F8C005C006C0F2
:1007E80007E83395E0FFE8242EF582EF3401F5831E
:1007F800E089828A838BF01224260CD007D006D099
:100808000580C075820122AFF0AE83E5829001A316
:10081800F0EEA3F0EFA3F09001A0E0FDA3E0FEA3AB
:10082800E0FF9002EEEDF0EEA3F0EFA3F09002F1FE
:100838007406F0E4A3F090017675F0001221AC90F4
:1008480001A3E0FDA3E0FEA3E0FF90019AE0FCFA1B
:100858007B009002EEEDF0EEA3F0EFA3F09002F132
:10086800EAF0EBA3F090016E75F000C0041221AC21
:10087800D004900175ECF090012E7440F090012F97
:100888007401F090019FE060067E617F0080047E25
:10089800607F00900130EEF090019BE0FCA3E0A3A4
:1008A800E0A3E0900131ECF09002EE7476F0740170
:1008B800A3F0E4A3F09002F17406F0E4A3F0900131
:1008C8003275F0001221AC7F00900175E0FEC3EF95
:1008D8009E50268F05740A2DFD3395E0FCED242EDD
:1008E800FDEC3401FCEF246EF582E43401F583E07D
:1008F800FB8D828C83F00F80D09002C0740A2EF09A
:100908009002C1E4F0A3F0A3F09002C4F090012E8D
:1009180075F0001214BBE582600475820022900213
:10092800C97440F09002CA74E8F07403A3F090010F
:100938002E75F00012165690012EE06004758200A4
:100948002275820122E5829001A9F090012E74405F
:10095800F090012F7401F09001307430F09001A9EB
:10096800E0900131F09002C07404F09002C1E4F00C
:10097800A3F0A3F09002C4F090012E75F0001214B9
:10098800BBE5826004758200229002C97440F09031
:1009980002CA74E8F07403A3F090012E75F00012F7
:1009A800165690012EE06004758200229001A6E0A0
:1009B800FDA3E0FEA3E0FF9002EE742FF07401A304
:1009C800F0E4A3F09002F17410F0E4A3F08D828EAD
:1009D800838FF01221AC75820122AFF0AE83E582DD
:1009E8009001B1F0EEA3F0EFA3F090012E7440F067
:1009F80090017CE090012FF09001B1E0FDA3E0FEB2
:100A0800A3E0FF9001AAE0FC9002C07402F09002FB
:100A1800C1EDF0EEA3F0EFA3F09002C4ECF090016A
:100A28002E75F0001214BBE58260047582002290D6
:100A380001ABE0FDA3E0FEA3E0FF9001AEE0FAA366
:100A4800E0FBA3E0FC8A828B838CF0122890900252
:100A5800C9F09002CA74E8F07403A3F08D828E8303
:100A68008FF0C004C003C002121656AE82AF83D006
:100A780002D003D0048F05ED30E70475820022C050
:100A880006C0079001ABE0F8A3E0F9A3E0FD888277
:100A980089838DF0122890543F7006D007D00680C5
:100AA80008D007D006758200221E9001B4EEF08AA5
:100AB800828B838CF0122890FFC39E50059001B45E
:100AC800EFF09001B4E0FF7E00C3EE9F503FC002FC
:100AD800C003C004EE28F522E439F5238D248E03E3
:100AE8007C000BBB00010CEB28FBEC39FC8D028B66
:100AF800828C838AF012289085228285238385241C
:100B0800F01224260ED004D003D00280BC8A828B37
:100B1800838CF0EF12242675820122AFF0AE83E5B4
:100B2800829001B6F0EEA3F0EFA3F09001B6E0FDDD
:100B3800A3E0FEA3E0FF8D828E838FF074861224DB
:100B4800269002C07401F09002C1E4F0A3F0A3F073
:100B58009002C4F08D828E838FF0C007C006C00556
:100B68001214BBE582D005D006D007600490FFFFC1
:100B7800229001B5E09002C9F09002CA74B8F074EE
:100B88000BA3F08D828E838FF0121656AE82AF8340
:100B9800C3E49E74808FF063F08095F040058E82E8
:100BA8008F83221EBEFF011F9001B6E0FBA3E0FC6D
:100BB800A3E0FD8B828C838DF0122890600490FF57
:100BC800FB227A008A007900C3E89EE99F503BC067
:100BD80006C007EA2BF525E43CF5268D278A067F13
:100BE800000EBE00010FEE2BFEEF3CF98D078E8242
:100BF80089838FF01228908525828526838527F0A2
:100C08001224260AD007D00680BA8E828F8322AF9C
:100C1800F0AE83E5829001BEF0EEA3F0EFA3F09072
:100C280001B9E0FF24C050699001BAE0F5F0A3E0F3
:100C380045F070299001BEE0FCA3E0FDA3E0FE743E
:100C48002EC0E07401C0E0E4C0E08C828D838EF099
:100C580012006B1581158115816002800475820070
:100C68002290012E748EF09002C07401F09002C19F
:100C7800ECF0EDA3F0EEA3F09002C4EFF090012E9B
:100C880075F0001214BBE5827003020D1F75820017
:100C980022EF14FE9001BEE0FBA3E0FCA3E0FDEE12
:100CA80020E737C007EE04F93395E0FAE9242EF57A
:100CB80028EA3401F529EEF83395E0FFE82BF8EF40
:100CC8003CFA8D0788828A838FF0122890F885284D
:100CD80082852983F01ED00780C590012E748EF07E
:100CE8000F9001BAE0FCA3E0FDA3E0FE9001BDE097
:100CF800FB9002C0EFF09002C1ECF0EDA3F0EEA380
:100D0800F09002C4EBF090012E75F0001214BBE5D0
:100D1800826004758200229002C97440F09002CA71
:100D280074B8F0740BA3F090012E75F000121656EB
:100D3800E58330E7047582002290012EE060047597
:100D480082002275820122AF83E5829001CDF0EF07
:100D5800A3F090012E744AF090012F7401F09001D5
:100D680030F0900131E4F09001CDE0FEA3E0FD9079
:100D78000132EDF0900133EEF09001C1E0900134C2
:100D8800F0900135E4F09002C07408F09002C1E4DC
:100D9800F0A3F0A3F09002C4F090012E75F00012B9
:100DA80014BBE58260047582FF229001CBE0FEA3AC
:100DB800E0FF9002C97416F09002CAEEF0EFA3F0BB
:100DC80090012E75F000121656AE82E58330E704C6
:100DD8007582FE2290012EE0FF7003F58222BF018A
:100DE8000280047582FD2290012FE090017CF09032
:100DF8000130E0FFBF12028009BF1402800475822F
:100E0800FC229001C2E0F530A3E0F531A3E0F53211
:100E18009001C5E0F52AA3E0F52BA3E0F52C7800B6
:100E2800C007E82530F52DE43531F52E85322F88B9
:100E380001740429FF3395E0FBEF242EFFEB340106
:100E4800FB8F828B83E0852D82852E83852FF01280
:100E58002426E8247DFAE43401FE8F828B83E08A1D
:100E6800828E83F0E8252AFDE4352BFEAF2C740C26
:100E780029F93395E0FCE9242EF9EC3401FC898248
:100E88008C83E0FB8D828E838FF0122426E82485E4
:100E9800FEE43401FF89828C83E0F98E828F83F02F
:100EA80008B80800D0075003020E28BF142E90017E
:100EB800C8E0FDA3E0FEA3E0FF900142E0FB7C0058
:100EC800900143E0F97A00E92CFCEA3BFB8D828E25
:100ED800838FF0EC122426A3EB12242675820122BC
:100EE800AFF0AE83E5829001D6F0EEA3F0EFA3F069
:100EF8009001CFE0FF240150047582FF2290012E5B
:100F08007440F090017CE090012FF08F060E900164
:100F180030EEF09001D6E0FCA3E0FDA3E0FE9002E5
:100F2800C07403F09002C1ECF0EDA3F0EEA3F090D2
:100F380002C4EFF090012E75F0001214BBE5826038
:100F4800047582FE229002C97440F09002CA74C8E7
:100F5800F0E4A3F090012E75F000121656AE82E56B
:100F680083FF30E7047582FD2290012EE0543F6034
:100F7800047582FC229001D3E0FBA3E0FCA3E0FD12
:100F880090012FE0FA1A8B828C838DF0EA122426C6
:100F9800EE24FEFEEF34FFFF8B828C838DF0122847
:100FA80090FDFB7C00EEB50306EFB50402800475E6
:100FB80082FB229001D0E0FCA3E0FEA3E0FF9002B8
:100FC800EE7430F07401A3F0E4A3F09002F1EDF0B8
:100FD800E4A3F08C828E838FF01221AC75820122FB
:100FE800E5829001E3F0E0FF24EF50047582FF22D0
:100FF8009001DCE0FE24F350047582FE22EF2F24DA
:101008000BFF8E05ED2D2FFF9001E67406F07D0194
:101018007C00ED24E6FAE43401FB0DEC247DF58236
:10102800E43401F583E08A828B83F00CBC0800402D
:10103800E19001E4ED04F0ED24E6FDE43401FC90D8
:1010480001E3E0FB8D828C83F09001D9E0F536A3B3
:10105800E0F537A3E0F5388B337900C3E9953350D1
:101068005AC0079001E4E0F804F0E824E6F534E417
:101078003401F535E975F002A42536F8E53735F081
:10108800FBAF3888828B838FF01228908534828555
:101098003583F09001E4E0FD04F0ED24E6FDE4344E
:1010A80001FC88828B838FF0122890A3122890FB72
:1010B800F88D828C83F009D00780A09001E4E0FDD0
:1010C80004F0ED24E6F582E43401F583EEF09001B6
:1010D800DDE0F539A3E0F53AA3E0F53B7A00C3EA91
:1010E8009E5059C0079001E4E0F904F0E924E6F5C0
:1010F80036E43401F537EA75F002A42539F8E53A03
:1011080035F0F9AF3B888289838FF0122890A312BB
:101118002890853682853783F09001E4E0FD04F05D
:10112800ED24E6FDE43401FC888289838FF01228DF
:1011380090F88D828C83F00AD00780A29001CFEFBF
:10114800F09001D07426F07402A3F0E4A3F09001AB
:10115800D37466F07402A3F0E4A3F09001E675F08E
:1011680000C006120EE8AF82D006BF0102800475E7
:1011780082FD228E05E4CDC4CD6DCD54F0CD6DFF3A
:10118800740C2DFDE43FFF900266E0FC7B00B50582
:1011980006EBB5070280047582FC2290022FE070EE
:1011A80006900230E060047582FB229001E5740C21
:1011B800F09001E0E0F536A3E0F537A3E0F5387BE1
:1011C80000C3EB9E504EEBFA75F010A42536F539A6
:1011D800E53735F0F53A85383B9001E5E0F97800D8
:1011E800C002E82539FAE4353AFDAF3BE92426F593
:1011F80082E43402F58309E0FC8A828D838FF01241
:10120800242608B81000D00240D69001E5E9F0EA9B
:1012180004FB80AD75820122E582900271F0E0FF47
:1012280024EF50047582FF2290026AE0FE24F550F4
:10123800047582FE22EF2F240BFF8E05ED2D2FFF64
:10124800EDC454F02FFF9002737408F07D017C0008
:10125800ED2473FAE43402FB0DEC247DF582E434CA
:1012680001F583E08A828B83F00CBC080040E19092
:101278000272ED04F0ED2473FDE43402FC90027177
:10128800E0FB8D828C83F0900267E0F53FA3E0F5E8
:1012980040A3E0F5418B3C7900C3E9953C505BC025
:1012A80007900272E0F804F0E82473F53DE4340294
:1012B800F53EE975F002A4253FF8E54035F0FBAFAF
:1012C8004188828B838FF0122890853D82853E83EA
:1012D800F0900272E0FD04F0ED2473FDE43402FCAA
:1012E80088828B838FF0122890A3122890FBF88DA8
:1012F800828C83E8F009D007809F900272E0FD0499
:10130800F0ED2473F582E43402F583EEF090026B7D
:10131800E0F542A3E0F543A3E0F5447A00C3EA9E72
:10132800505BC007900272E0F904F0E92473F53FBE
:10133800E43402F540EA75F002A42542F8E54335A5
:10134800F0F9AF44888289838FF0122890A312287D
:1013580090FC853F82854083ECF0900272E0FD04AA
:10136800F0ED2473FDE43402FC888289838FF01247
:101378002890F88D828C83F00AD00780A090026EA6
:10138800E0F545A3E0F546A3E0F5477A00C3EA9EF9
:101398005057EAF53D75F010A42545F542E5463568
:1013A800F0F543854744900272E0F8753F00C007A6
:1013B800E82473F9E43402FF08E53F2542FBE435ED
:1013C80043FCAD448B828C838DF0122890FB89827C
:1013D8008F83F0053FC3E53F9410D00740D09002BB
:1013E80072E8F0E53D04FA80A49001CFEFF0900197
:1013F800D074B3F07402A3F0E4A3F09001D374BEE8
:10140800F07402A3F0E4A3F090027375F000120EDA
:10141800E8AF82BF010280047582FD229002BEE01F
:10142800FFBF0B0280047582FC229002BCE07006AC
:101438009002BDE060047582FB2275820122900251
:10144800BFE4F075825512247F75825512247F7E81
:10145800007F00C3EE940EEF64809480501575826F
:1014680000C007C00612247FD006D0070EBE00E3D6
:101478000F80E07582FF12247F75820312247F7526
:1014880082FD12247F7582D412247F75821412245F
:101498007F75820112247F75821712247F7582005E
:1014A80012247F122512122512E5826005122528C2
:1014B80080F422AFF0AE83E5829002C5F0EEA3F08F
:1014C800EFA3F0122512122512E5826005122528D5
:1014D80080F49002C5E0FDA3E0FEA3E0FF8D828EBC
:1014E800838FF01228909002BFF0758200C007C069
:1014F80006C00512247F75820012247F7582FF12B0
:10150800247F9002C4E0FC9002C0E0FB2CFA0A8A17
:1015180082C004C003C00212247FD002EAF4FA0A8F
:101528008A8212247F7582D412247FD003D004D0FB
:1015380005D006D0079002C874D4F08D108E118F94
:101548001279007A008B007F00C3E998EA64808FE3
:10155800F063F08095F05033C003E92510F8EA35C0
:1015680011FBAF1288828B838FF0122890F582C00E
:1015780004C003C002C00112247FD001D002D003EE
:10158800D00409B900010AD00380BA9002C5E0FD71
:10159800A3E0FEA3E0FF7A00C3EA9B501FC003EA62
:1015A8002DF8E43EF98F03888289838BF012289006
:1015B800F89002C8E028F00AD00380DC9002C1E06D
:1015C800FDA3E0FEA3E0FF7A007B008C007900C356
:1015D800EA98EB648089F063F08095F05039C00494
:1015E800EA2DF8EB3EF98F04888289838CF0122863
:1015F80090F582C007C006C005C004C003C002122F
:10160800247FD002D003D004D005D006D0070ABA70
:1016180000010BD00480B47B00C3EB9C501BEB2D66
:10162800F8E43EF98F02888289838AF0122890F8BC
:101638009002C8E028F00B80E09002C8E0F4FF0FA9
:101648008F8212247F75820012247F02184BAFF01C
:10165800AE83E5829002CCF0EEA3F0EFA3F0900207
:10166800CAE0FEA3E0FF9002E27403F0E4A3F09066
:1016780002E4EEF0EFA3F09002CF75F000C007C0CF
:10168800061218C5AD82D006D007C374808DF063EA
:10169800F08095F0400490FFFE229002CFE0701099
:1016A8009002D0E0700A9002D1E0FDBDFF028004F4
:1016B80090FFFD229002E27402F0E4A3F09002E4AD
:1016C800EEF0EFA3F09002D275F000C007C006124A
:1016D80018C5AD82D006D007C374808DF063F08042
:1016E80095F0400490FFFE229002D2E0FD9002D3D4
:1016F800E02D600490FFFD221D1D9002D2EDF0E068
:10170800FD9002C9E0C39D500490FFFC229002BFE7
:10171800E09002D404F09002E27402F0E4A3F090A6
:1017280002E4EEF0EFA3F09002CF75F000C007C01E
:10173800061218C5AD82D006D007C374808DF06339
:10174800F08095F0400490FFFE229002CFE0FDBDAE
:10175800D50F9002D0E0FD9002D4E0FCB5050280E0
:101768000490FFFD229002CCE0FAA3E0FBA3E0FD89
:101778009002D2E09002E2F0E4A3F09002E4EEF0EE
:10178800EFA3F08A828B838DF0C007C006C00412D5
:1017980018C5AD82D004D006D007ED3395E0FB9094
:1017A80002D2E0F97A00EDB50106EBB50202800439
:1017B80090FFFE229002D574D52CF09002CCE0FB6D
:1017C800A3E0FCA3E0FD7A009002D2E0F9C3EA9915
:1017D8005023C006C007EA2BF8E43CF98D0788823D
:1017E80089838FF0122890F89002D5E028F00AD06B
:1017F80007D00680D39002E27402F0E4A3F09002CE
:10180800E4EEF0EFA3F09002CF75F0001218C5AF28
:1018180082C374808FF063F08095F0400490FFFEDF
:10182800229002CFE0FF9002D5E02F70069002D000
:10183800E0600490FFFD229002D2E0FF7E008F82DC
:101848008E83229002D6E4F09002D7F09002D8144A
:10185800F09002D9E4F09002DA14F09002DBE4F0A0
:101868009002E27406F0E4A3F09002E4740AF0E453
:10187800A3F09002DC75F0001218C5AF82C3748023
:101888008FF063F08095F040047582FE2290031B70
:1018980074D6F07402A3F0E4A3F090031E7406F06B
:1018A800E4A3F09002DC75F000122689E5828583B6
:1018B800F045F060047582FF2275820022AFF0AE19
:1018C80083E5829002E6F0EEA3F0EFA3F09002E940
:1018D800E4F0A3F09002EBF0A3F09002E4E0FEA3A2
:1018E800E0FF9002E6E0F519A3E0F51AA3E0F51B86
:1018F8009002E2E0F9A3E0FAE4F513F514C3E51366
:1019080099E51464808AF063F08095F04003021A28
:1019180012C007C006C002C0011222C88582158500
:10192800831685F017F518D001D002D006D007C06D
:1019380007C006C002C001122512E582D001D002FC
:10194800D006D007601FC007C006C002C00112251C
:1019580028A882D001D002D006D0079002EBE8F088
:10196800E4A3F0804DEE4F60C6C001C002C007C0BE
:10197800061222C8A882A983AAF0FDD006D007E8DB
:10198800C39515F51CE99516F51DEA9517F51EED95
:101998009518F51F8E028F037C007D00C3E51C9A05
:1019A800E51D9BE51E9CE51F9DD002D0015003025A
:1019B80019379002EBE0FCA3E0FD30E71A9002E94A
:1019C800E0F8A3E09002E9E0F5F0A3E045F0600359
:1019D8008882227582FE22C001C002E5132519F80B
:1019E800E514351AFAAB1B88828A838BF0EC122433
:1019F800260513E4B5130205149002E9E513F0E592
:0F1A080014A3F0D002D001021905AF138F822270
:101A1800AFDBBF08028003021E13900007E0FE7FC1
:101A280000900006E0FD7C004FF548EC4EF5497F3C
:101A380000900001E0F54A90039EE4F0900000E079
:101A4800FE54606067900000E0FE5306607D00BEB3
:101A58002005BD0002800BBE404DBD004A7FFF023D
:101A68001E157401B54A03021E157403B54A028097
:101A7800177409B54A03021E15740AB54A03021EF3
:101A880015740BB54A1C800E90039FE0FE90000071
:101A9800F07F01021E15900002E0FE90039FF00205
:101AA8001E157FFF021E157FFF021E15E54A24F44E
:101AB8005003021E0FE54A240B83F582E54A2410E1
:101AC80083F583E473F11F0FDF0FE9E50FF61315B4
:101AD800151D1C1E1C1E1B1A1E1B1C1E1E900003FF
:101AE800E0FEBE01028011BE02028016BE03028023
:101AF8001BBE220280638079754B2B754C2A7F129E
:101B08008071754B3D754C2A7F298067900002E0F3
:101B18007008754B86754C2A8034900002E0FEBE32
:101B28000108754BBA754C2A8024900002E0FEBE6D
:101B38000208754BA2754C2A8014900002E0FEBE84
:101B48000308754B8A754C2A80047FFF8025854BD6
:101B580082854C83E493FF801A900002E0700E7532
:101B68004B66754C2A902A56E493FF80067FFF80C7
:101B7800027FFFBFFF03021E158F057E00C3ED9590
:101B880048EE954950048D488E49AD48AE49C3ED9D
:101B98009440EE9400920340067B407C008004ABA6
:101BA80048AC498B077C00C3EC9F50198C027B0022
:101BB800EC254BF582E4354CF583E493F98A828B66
:101BC80083F00C80E28F037C00EDC39BFDEE9CFE4E
:101BD8008D488E49EF254BF54BE4354CF54C021EEC
:101BE80015900002E0FE8E48754900021E1590020D
:101BF800EDE0900000F0AD48AE49C3ED9401EE94DD
:101C0800005003021E157F01021E15900002E0FE1F
:101C18009002EDF0021E15900000E0541F702F9006
:101C28000003E0FD7E00900002E0FC7B004206EB32
:101C38004205BE0114BD0011902A44E493FE30E52C
:101C480003021E157FFF021E157FFF021E1590005E
:101C580000E0FE53061F7D00BE0277BD00749000B1
:101C680004E0FEBE0102805FBE02028049BE03029C
:101C78008033BE0402801DBE81028040BE82028085
:101C88002ABE83028014BE844474BC55DE4402F527
:101C9800DE021E1553DE73021E1574BC55D64402AF
:101CA800F5D6021E1553D673021E1574BC55D444BE
:101CB80002F5D4021E1553D473021E1574BC55D2F6
:101CC8004402F5D2021E1553D273021E157FFF027D
:101CD8001E157FFF021E15900000E0541F702F9004
:101CE8000003E0FD7E00900002E0FC7B004206EB72
:101CF8004205BE0114BD0011902A44E493FE30E56C
:101D080003021E157FFF021E157FFF021E1590009D
:101D180000E0FE53061F7D00BE0205BD00028003E1
:101D2800021DED900003E0FD7E00900002E0FC7BC8
:101D3800004206EB4205EE4D6003021DE9900005E6
:101D4800E0FD7E00900004E0FC7B004206EB4205CB
:101D5800BE0106BD0003021DDDBE0205BD000280F6
:101D680060BE0305BD00028044BE0405BD000280BC
:101D780028BE8105BD00028052BE8205BD000280DA
:101D880036BE8305BD0002801ABE8451BD004E7464
:101D9800BF55DE4403F5DE8074747F55DE440CF5D0
:101DA800DE806A74BF55D64403F5D68060747F55CB
:101DB800D6440CF5D6805674BF55D44403F5D48068
:101DC8004C747F55D4440CF5D4804274BF55D2442A
:101DD80003F5D28038747F55D2440CF5D27FFF804A
:101DE8002C7FFF80287FFF8024900000E4F0900083
:101DF80001F0AD48AE49C3ED9402EE940040047F73
:101E080002800AAF4880067FFF80027FFFBFFF077E
:101E1800754AFF75DCCF22EF24BF40068FDD75DCE5
:101E2800C02275DD0075DCC0227405B54A02805DEC
:101E38007406B54A66AE48AF49C3EE9440EF9400C5
:101E4800920440067C407D008004AC48AD497D008A
:101E5800C3ED9C50198D027B00ED254BF582E435CE
:101E68004CF583E493F98A828B83F00D80E28C032E
:101E78007D00EEC39BFEEF9DFF8E488F49EC254BFE
:101E8800F54BE4354CF54C8CDD63DC4022E5E3543E
:101E980080FFE5484FF5E375DC022275DD0075DC4F
:101EA80002227409B54A09900000E0FF9003A0F0EF
:101EB80075DD0063DC802220D903021F64E5D95454
:101EC8000FFFADD95305307E00BD0005BE0002806E
:101ED8001BBD1005BE00028035BD2005BE00028076
:101EE80042BD3005BE00028059021F62EF24FB503C
:101EF80003021F62EF2F901F02738008800B805A25
:101F080080588056121EAA8051120426804CEF2455
:101F1800FB4047EF2F901F2173803F803D803B801F
:101F2800398037EF24FB4032EF2F901F367380083B
:101F3800800B802680248022121E31801D120415F9
:101F48008018EF24FB4013EF2F901F5573800880F3
:101F580009800780058003121A18C2D930D8147571
:101F6800DC0275D21275E300C2DAC2D9C2D8900277
:101F7800EDE4F010DA0122E5DA20E20375D8FF2259
:101F880075E20053E27F43E22975E30053E2BF5351
:101F9800D1FB75D18043D1012243E10443E10243DF
:101FA800E10143D81FD2EAD2AF227E007F008EEC37
:101FB8008FED7E0A7F008EEE8FEF75D21275EAC024
:041FC80075DC0222A0
:101FCC00C021C0E0C0F0C082C083C007C006C005FD
:101FDC00C004C003C002C001C000C0D075D0001244
:101FEC001EBFD0D0D000D001D002D003D004D00579
:101FFC00D006D007D083D082D0F0D0E0D02132C030
:10200C0021C0E0C0F0C082C083C007C006C005C0BC
:10201C0004C003C002C001C000C0D075D00030980D
:10202C0005122999C2983099051229D9C299D0D094
:10203C00D000D001D002D003D004D005D006D007F8
:10204C00D083D082D0F0D0E0D02132C021C0E0C00B
:10205C00F0C082C083C007C006C005C004C003C066
:10206C0002C001C000C0D075D00030C0051225F9E7
:10207C00C2C030C105122639C2C1D0D0D000D001A7
:10208C00D002D003D004D005D006D007D083D082A4
:10209C00D0F0D0E0D02132C021C0E0C0F0C082C06E
:1020AC0083C007C006C005C004C003C002C001C085
:1020BC0000C0D075D0009003A7E0FEA3E0FFC007DE
:1020CC00C0068E828F83120069D006D007D0D0D084
:1020DC0000D001D002D003D004D005D006D007D058
:1020EC0083D082D0F0D0E0D02132C021C0E0C0F04B
:1020FC00C082C083C007C006C005C004C003C002B4
:10210C00C001C000C0D075D0009003A9E0FEA3E0D0
:10211C00FFC007C0068E828F83120069D006D007DD
:10212C00D0D0D000D001D002D003D004D005D0063E
:10213C00D007D083D082D0F0D0E0D02132C021C0E3
:10214C00E0C0F0C082C083C007C006C005C004C098
:10215C0003C002C001C000C0D075D0009003A1E044
:10216C00FEA3E04E600E9003A1E0F8A3E0F5838897
:10217C0082120069D0D0D000D001D002D003D0049C
:10218C00D005D006D007D083D082D0F0D0E0D021BB
:10219C00321223F112024412040680FB75820022D3
:1021AC00AFF0AE83E5829002F3F0EEA3F0EFA3F074
:1021BC009002F3E0F55AA3E0F55BA3E0F55CAA5AB4
:1021CC00AB5BAC5C9002EEE0F8A3E0F9A3E0FF900F
:1021DC0002F1E0F55DA3E0F55EAD5DAE5E155D74FC
:1021EC00FFB55D02155EED4E6020888289838FF00D
:1021FC00122890FEA3A882A9838A828B838CF0EE8E
:10220C00122426A3AA82AB8380CF855A82855B8356
:10221C00855CF022AC82AD839002F7E0FEA3E0FF78
:10222C00BE000360121F0F9002F6E08C828D8312A9
:0C223C002426A3DEFADFF88C828D8322BA
:10224800C0D075D00808B8000D09B900090ABA004D
:10225800050BBB00010CD0D032A2AFC2AFA808A9B1
:1022680009AA0AAB0BAC8A8588F092AF30F51274D4
:10227800012C600D08B8000909B900050ABA000167
:102288000BC3EC9406FCECC313FC75F07DE8A4F8D2
:10229800ADF075F07DE9A42DF9E435F0FD75F07D1C
:1022A800EAA42DFAE435F0FD75F07DEBA42DFB7D55
:1022B80000EC28F582E93DF583EA3DF5F0EB3D2297
:1022C800A2AFC2AFA808A909AA0AAB0BAC0C92AF7F
:1022D80075F020E8A4A8F075F020E9A428F582A8F4
:1022E800F075F020EAA428F583A8F075F020EBA497
:1022F80028F9A8F075F020ECA42889F02285824DF1
:1023080085834E85F04FF550122261858251858371
:102318005285F053F554E54D454E454F45507001F3
:1023280022A84DA94EAA4FAB5085515585525685C6
:102338005357855458E8494A4B60DBC003C002C074
:1023480001C000122261AC82AD83AEF0FFD000D094
:1023580001D002D003ECC39555FCED9556FDEE95E2
:1023680057FEEF9558FFC3EC94E8ED9403EE940004
:10237800EF940040A118B8FF0919B9FF051ABAFF70
:10238800011B884D894E8A4F8B5074E82555F555A9
:1023980074033556F556E43557F557E43558F5586E
:1023A8008555518556528557538558548087AE8236
:1023B800AF83C374019EE49F40022200C374029E4F
:1023C800FE74009FFF00BE0005BF0002002200004F
:1023D8000000000000000000000000000000000EE7
:1023E800BE00EB0FBF00ED002275A15575A1AA74C0
:1023F800F855B94406F5B975A1009013881223B6AB
:10240800759E5D759D0074F055894402F58953C920
:0D241800EF758C06C28DD2A9D28CD2AF22F6
:1024260020F71130F6138883A88220F509F6A883D1
:102436007583002280FEF280F5F0229002FAE0F524
:102446008222AC82AD83AEF0FFC2C7D2C5D2C4C071
:1024560004C005C006C00790E36075F016E41227B5
:102466006AAC82E58124FCF581C3E49CF5C2D2EC1A
:10247600D2AF9002FA7401F022AF82A2AFE433FE2B
:10248600C2AF9003A5E0FD9003A6E0FCEDB50410F5
:1024960020050DD2058FC1EE6002D2AF75820122F2
:1024A6009003A5E0FD0D53050F7B007C009003A66D
:1024B600E0FAEDB50235EE6002D2AF0BBB00010CBF
:1024C600900005C007C006C005C004C0031223B6AD
:1024D600D003D004D005D006D0078B018C02C3E907
:1024E6009420EA944E40C6758200229003A5E0240B
:1024F6000BF582E43403F583EFF09003A5EDF0EEDF
:102506006002D2AF758201222005FD229003A3E06E
:102516002410FF9003A4E0FEEFC39EFF53070F8F26
:1025260082229003A3E02410FF9003A4E0FEEFC3F1
:102536009E540F601C9003A4E024FBF582E4340251
:10254600F583E0FF9003A4E0FE0E740F5EF08F8229
:102556002275820022C059858159C082C083E581D7
:102566002405F581AF590FE5592403F8A607087627
:1025760000087640E55924FCFD7E007F40E559249D
:1025860006F9A859088604E55924FCF886038CF058
:10259600EBA4F709A7F0E559240604F98704A8591E
:1025A60008860374012DFAE43EFE8A828E838FF03C
:1025B6001228908BF0A4FBE5592403F8740126FD3C
:1025C600E40836FE0886078D828E838FF0122890E7
:1025D600FDE55924FCF886078DF0EFA42B2CF7E5D2
:1025E600592406F987060987078E828F83855981C4
:0325F600D0592297
:1025F9009003A3E0FF7E000FBF00010E7410C0E03E
:10260900E4C0E08F828E831228ACAE8215811581D9
:102619009003A4E0FFEEB50701229003A3E024FB99
:10262900F582E43402F583E5C1F09003A3EEF022CC
:1026390030054A9003A5E0FF9003A6E0FEEFB5063A
:1026490005A205C205229003A6E0240BF582E43415
:1026590003F583E0F5C19003A6E0FF7E000FBF00FC
:10266900010E7410C0E0E4C0E08F828E831228ACA2
:0E267900AE82AF83158115819003A6EEF0228C
:012687003220
:10268900AFF0AE83E582900320F0EEA3F0EFA3F064
:1026990090031EE0FEA3E0FF90031EE0F5F0A3E027
:1026A90045F07004900000221EBEFF011FEE4F602E
:1026B90075C006C007900320E0FBA3E0FCA3E0FD82
:1026C9008B008C018D02888289838AF0122890F808
:1026D90090031BE0F55AA3E0F55BA3E0F55CA95A6A
:1026E900AA5BAF5C89828A838FF0122890F9E8B5DA
:1026F90001028006D007D006802CD007D0060BBB7C
:1027090000010C900320EBF0ECA3F0EDA3F0AB5A21
:10271900AC5BAD5C0BBB00010C90031BEBF0ECA3B5
:10272900F0EDA3F08082900320E0FDA3E0FEA3E09A
:10273900FF8D828E838FF0122890FD7F0090031BFE
:10274900E0FBA3E0FCA3E0FE8B828C838EF01228D1
:1027590090FB7E00EDC39BFDEF9E8D82F5832232B7
:10276A00C059858159C082C083C0F0C0E07A007B1D
:10277A00007E007F007D20A85908080808E6235437
:10278A0001FCA85908E626F608E633F608E633F609
:10279A0008E633F6EA2AFAEB33FBEE33FEEF33FFB1
:1027AA00EC6003430201E55924FAF8C3EA96EB0800
:1027BA0096EE0896EF0896401CE55924FAF8EAC303
:1027CA0096FAEB0896FBEE0896FEEF0896FFA859D4
:1027DA0008E64401F6DDA0A859088682088683081F
:1027EA0086F008E6855981D05922ABF0A2AFE433CE
:1027FA00FEC2AFE0A37A0833D2954002C2957905AA
:0E280A00D9FEC295DAF1DBEBEE6002D2AF220E
:1028180022AF82BF0200503EEF75F002A424A7FD4C
:10282800740335F0FE900323E0FBA3E0FC8D828E59
:1028380083EBF0ECA3F0BF00028005BF0118800B0A
:10284800900325E024FF9288D2A822900325E0FF78
:1028580024FF928AD2AA22AF82BF02005028BF006A
:10286800028005BF01088004C2A88002C2AAEF75D1
:10287800F002A424A7FE740335F0FF8E828F8374C0
:0728880018F07428A3F022F0
:1028900020F71430F6148883A88220F507E6A88371
:1028A00075830022E280F7E49322E022C0598581FB
:1028B00059AE82E583FF33E433FD6009C3E49EFB38
:1028C000E49FFC80048E038F04E55924FCF808E69D
:1028D00030E70FE55924FCF8C3E496FE08E496FFC0
:1028E000800AE55924FCF88606088607C005C0065C
:1028F000C0078B828C8312291AAE82AF8315811593
:1029000081D005ED600DC3E49EFCE49FFD8C828DBB
:102910008380048E828F83D05922C059858159AE1D
:1029200082AF837D007C00E55924FCF808E623543F
:1029300001FB702FE55924FCF8E626F608E633F68D
:10294000E55924FCF8C3EE96EF08965011E559249A
:10295000FCF808E618C313C613C608F680050C8CED
:102960000580C4E55924FCF8C3EE96EF0896400DA7
:10297000E55924FCF8EEC396FEEF0896FFE55924CE
:10298000FCF808E618C313C613C608F68D041DEC40
:0929900070D18E828F83D0592290
:102999009003ABE0FF7E000FBF00010E7410C0E092
:1029A900E4C0E08F828E831228ACAE821581158136
:1029B9009003ACE0FFEEB50701229003ABE02426BB
:1029C900F582E43403F583E599F09003ABEEF02248
:1029D90030064A9003ADE0FF9003AEE0FEEFB50686
:1029E90005A206C206229003AEE02436F582E4343D
:1029F90003F583E0F5999003AEE0FF7E000FBF0079
:102A0900010E7410C0E0E4C0E08F828E831228ACFE
:0E2A1900AE82AF83158115819003AEEEF022E0
:042A27007582002292
:102A2B0012011001000000403A30F0810001010258
:102A3B00030109022900010100806409040000025E
:102A4B00030000000921100100012220000705816D
:102A5B000340000A0705010340000A05010900A114
:102A6B00018501950B7508150026FF00050A190154
:102A7B00290391021901290B8102C00403090418CF
:102A8B000341006B0061007200690020004E00459D
:102A9B0000570021002100180341006B00610072F8
:102AAB0000690020004E0045005700210021000E58
:0D2ABB00035300450049004B0041004E0050
:102AC8009D215743434676326090D00632F5FFFF8A
:102AD800FFFFFFFF000000000000000000000000F2
:102AE80000000000000000000000000000000000DE
:102AF80000000000000000000000000000000000CE
:102B080000000000000000000000000000000000BD
:082B18000000000000000000B5
:032B2000000100B1
:022B23000000B0
:042B250000000000AC
:042B29001828182828
:042B2D0000000000A4
:00000001FF
