:0600000002006B021ACFA2
:03000B00021C7460
:03001300021B22AB
:01001B0032B2
:03002300021A3787
:03002B000221941B
:01003300329A
:03003B00021B7530
:030043000219F8A7
:01004B003282
:03005300021A830B
:01005B003272
:030063000220B3C5
:03006600021BC9B1
:02006900E4733E
:0D006B00758142122453E582600302006695
:100078007969E94400601B7A0190251E78FC75A017
:1000880001E493F2A308B8000205A0D9F4DAF275E6
:02009800A0FFC7
:06009A00E478FFF6D8FD3A
:1000A0007800E84400600A799475A000E4F309D868
:1000B000FC7868E84401600C7902900094E4F0A3B5
:0400C000D8FCD9FA95
:0E00C4007808E4F608F608F608F6780C7600E0
:0200D200C20466
:0200D400C20563
:0300D600020066BF
:1000DA009001ACE4F09001AD7410F0E4A3F090004C
:1000EA009475F000121C4C7E007F00C3EE9410EF52
:1000FA0064809480502EEE2494FCEF3400FD8E032D
:10010A008B82C007C006C005C0041219E8AB82D0B2
:10011A0004D005D006D0078C828D83EBF00EBE008A
:10012A00CA0F80C7900094E06008900094E0FFBF77
:10013A00FF249000947401F0900095E4F0900096EA
:10014A0004F0900097E4F0900098F090009AF090F4
:10015A00009BF01201789000967401F09000977459
:10016A0005F09000987402F0900099E4F0227E0065
:10017A007F00C3EE9410EF648094805024EEFD2437
:10018A0094F582EF3400F583E09001A3F08D82C0EC
:10019A0007C0061219B2D006D0070EBE00D40F80CF
:1001AA00D1221200DA12196E12199812198775DD06
:1001BA000075D30075D50090C20075F001E4121ED7
:1001CA007412083E90000AE4F5F0121D311208413B
:1001DA00AC82AD83AEF0FFEC4D4E4F706890009943
:1001EA007401F07E007F00C3EE9406EF6480948071
:1001FA00503EC007C006C006C007900003121F8702
:10020A00AC82AD8315811581D006D007EC24A4FCFD
:10021A00ED3400FD8C828D83E4F08C828D83A314EF
:10022A00F08C828D83A3A3E4F00EBE00BA0F80B7D0
:10023A007EA47F007D007C004305158E828F838D0E
:10024A00F0EC1222207582101209661208FA900048
:10025A009BE0705FFEFFC3EE9406EF6480948050CB
:10026A003DC007C006C006C007900003121F87AC36
:10027A0082AD8315811581D006D007EC24A4FCED4C
:10028A003400FD8C828D8374FFF08C828D83A3F001
:10029A008C828D83A3A3F00EBE00BB0F80B87EA410
:1002AA007F007D007C004305158E828F838DF0ECE4
:1002BA0002222022900151E4F09001527444F07419
:1002CA0002A3F0E4A3F0900155744CF07402A3F079
:1002DA00E4A3F090015874BAF07400A3F0E4A3F018
:1002EA0090015B74C8F0E4A3F090FFFF120C92E552
:1002FA0082604B9002107402F09001A47444F0746E
:10030A0002A3F0E4A3F09001A77408F0E4A3F0902C
:10031A00021175F000121BD89001A47444F0740203
:10032A00A3F0E4A3F09001A77408F0E4A3F090020C
:10033A001B75F000121BD89000B97401F0229001CD
:10034A00387425F07402A3F0E4A3F090013B7429F9
:10035A00F07402A3F0E4A3F090013E74E8F0740391
:10036A00A3F07582001209E0E582700302041A9074
:10037A000229E0900141F09001427401F0E4A3F0F7
:10038A00A3F0A3F0900146F090014774FEF07401C7
:10039A00A3F0E4A3F090022575F000120ABFE582EB
:1003AA00606E90014D742AF07402A3F0E4A3F07514
:1003BA008202120BFDE58260579002107401F090E0
:1003CA0001A47430F07402A3F0E4A3F09001A774BE
:1003DA000AF0E4A3F090021175F000121BD8900104
:1003EA00A47432F07402A3F0E4A3F09001A7740895
:1003FA00F0E4A3F090021B75F000121BD890021BC8
:10040A0074E0F090021C7404F09000B97401F022B8
:10041A009001387425F07402A3F0E4A3F090013B34
:10042A007429F07402A3F0E4A3F090013E74E8F09A
:10043A007403A3F07582001209E0E58270030204D6
:10044A00EC900229E0900141F09001427401F0E43D
:10045A00A3F0A3F0A3F0900146F09001477404F0D2
:10046A007402A3F0E4A3F090022575F000120ABF0B
:10047A00E582606E90014D742AF07402A3F0E4A341
:10048A00F0758202120BFDE582605790021074012A
:10049A00F09001A47430F07402A3F0E4A3F0900188
:1004AA00A7740AF0E4A3F090021175F000121BD8A9
:1004BA009001A47432F07402A3F0E4A3F09001A7AF
:1004CA007408F0E4A3F090021B75F000121BD89098
:1004DA00021B74E0F090021C7404F09000B97401DD
:1004EA00F0229001387425F07402A3F0E4A3F0908E
:1004FA00013B7429F07402A3F0E4A3F090013E7466
:10050A00E8F07403A3F07582001209E0E582700333
:10051A000205BE900229E0900141F0900142740167
:10052A00F0E4A3F0A3F0A3F0900146F09001477421
:10053A000AF07402A3F0E4A3F090022575F0001209
:10054A000ABFE582606E90014D742AF07402A3F02E
:10055A00E4A3F0758202120BFDE582605790021047
:10056A007401F09001A47430F07402A3F0E4A3F0D3
:10057A009001A7740AF0E4A3F090021175F000123A
:10058A001BD89001A47432F07402A3F0E4A3F09093
:10059A0001A77408F0E4A3F090021B75F000121B87
:1005AA00D890021B74E0F090021C7404F09000B919
:1005BA007401F0229001ACE4F09001AD740BF0E408
:1005CA00A3F090021075F000121C4C9001ACE4F0FC
:1005DA009001AD7408F0E4A3F090021B75F00012CC
:1005EA001C4C9000B9E4F02290009AE0701290003E
:1005FA00A4E0700C9000A5E070069000A6E06005EB
:10060A001202BE802E9001ACE4F09001AD740BF0A2
:10061A00E4A3F090021075F000121C4C9001ACE4B7
:10062A00F09001AD7408F0E4A3F090021B75F0009D
:10063A00121C4C900001E4F5F0121D319000BE74BA
:10064A0010F07402A3F0E4A3F09000C1740BF075EB
:10065A0082011207889000B9E06022900001E4F557
:10066A00F0121D319000BE741BF07402A3F0E4A3D3
:10067A00F09000C17408F07582020207882275D3CF
:10068A000074FC55D24402F5D2900223E4F02220F1
:10069A00DE012290000AE0FFBF01028007BF0303C8
:1006AA00020724227E007F00C3EE9406EF64809442
:1006BA00805052C007C006C006C007900003121F30
:1006CA0087AC82AD8315811581D006D007EC24A4AE
:1006DA00FCED3400FD90000CE08C828D83F07401F7
:1006EA002CFAE43DFB90000BE08A828B83F07402C3
:1006FA002CFCE43DFD90000DE08C828D83F00EBE53
:10070A0000A60F80A37EA47F007D007C0043051213
:10071A008E828F838DF0EC02222090000BE07019FC
:10072A009000BE7494F07400A3F0E4A3F09000C1AA
:10073A007410F07582030207889000BCE4F0A3F0FD
:10074A009000BCE0FEA3E0FFC3EE9410EF64809437
:10075A00805028EE2494FCEF3400FD0EBE00010FF9
:10076A00EE240AF582EF3400F583E0FB8C828D8358
:10077A00F09000BCEEF0EFA3F080C5020178E582AC
:10078A009000C2F09001A2E07003F582227E007F01
:10079A0000900223E060200EBE00010F900005C009
:1007AA0007C006121DE2D006D007C3EE9450EF949C
:1007BA00C340DE758200229001ACE4F09001AD7472
:1007CA0040F0E4A3F090004A75F000121C4C90002F
:1007DA00C2E090004AF09000BEE0FDA3E0FEA3E074
:1007EA00FF9000C1E0FC751000C3E5109C5033C0B7
:1007FA0004A9107A00744129F9E43AFAE9240AF9B9
:10080A00EA3400FAE5102DF8E43EFB8F0488828B67
:10081A00838CF01222BCF889828A83F00510D004F6
:10082A0080C7EC04F5D39002237401F053D2FC750F
:03083A0082012216
:10083E00020E2C9000D87402F090016014F090011A
:10084E0061E4F0A3F0A3F0900164F09000D875F08D
:10085E0000120EA1E5826007900000E4F5F02290F0
:10086E0001697440F090016A74E8F07403A3F0908B
:10087E0000D875F00012103CE58330E707900000B9
:10088E00E4F5F0229000D8E0FF7E007D008D048E0E
:10089E00058F067F009000D9E0F8E4F9FAFBE842F4
:1008AE0007E94206EA4205EB42048D048E058F06E7
:1008BE007F009000DAE0F8E4F9FAFBE84207E9423B
:1008CE0006EA4205EB42048D048E058F067F0090EA
:1008DE0000DBE0F8E4F9FAFBE84207E94206EA42F7
:1008EE0005EB42048F828E838DF0EC229000D8743B
:1008FE0014F09000D97401F09000DA7414F09000A6
:10090E00DB7401F09001607404F0900161E4F0A3D7
:10091E00F0A3F0900164F09000D875F000120EA1D3
:10092E00E5826004758200229001697440F09001A6
:10093E006A74E8F07403A3F09000D875F0001210FA
:10094E003CAE82AF83C3E49E74808FF063F08095DB
:10095E00F09200E433F58222E582900137F09000A8
:10096E00D87432F09000D97405F09000DA74FFF06C
:10097E009000DB7401F0900137E09000DCF0900104
:10098E00607405F0900161E4F0A3F0A3F0900164AF
:10099E00F09000D875F000120EA1E5826004758209
:1009AE0000229001697440F090016A74E8F07403BB
:1009BE00A3F09000D875F00012103CAE82AF83C346
:1009CE00E49E74808FF063F08095F09201E433F52D
:1009DE008222E582900140F09000D8744AF0900097
:1009EE00D97401F0900140E09000DAF0900160744B
:1009FE0003F0900161E4F0A3F0A3F0900164F09095
:100A0E0000D875F000120EA1E582600475820022F6
:100A1E0090013EE0FEA3E0FF9001697440F090016A
:100A2E006AEEF0EFA3F09000D875F00012103CAE15
:100A3E0082E58330E704758200229000D8E0FFBF84
:100A4E00010280047582002290013BE0FDA3E0FECE
:100A5E00A3E0FF9000DDE08D828E838FF0121E5298
:100A6E00900138E0FDA3E0FEA3E0FF7C009000DDE6
:100A7E00E0FBC3EC9B5036EC2DF9E43EFA8F038C71
:100A8E0000740628F8C005C006C007E83395E0FFDD
:100A9E00E824D8F582EF3400F583E089828A838BCF
:100AAE00F0121E520CD007D006D00580C075820100
:100ABE0022AFF0AE83E58290014AF0EEA3F0EFA3F1
:100ACE00F0900147E0FDA3E0FEA3E0FF9001A4ED4E
:100ADE00F0EEA3F0EFA3F09001A77406F0E4A3F0FC
:100AEE0090012075F000121BD890014AE0FDA3E0A2
:100AFE00FEA3E0FF900141E0FCFA7B009001A4ED23
:100B0E00F0EEA3F0EFA3F09001A7EAF0EBA3F090C4
:100B1E00011875F000C004121BD8D00490011FEC10
:100B2E00F09000D87440F09000D97401F090014616
:100B3E00E060067E617F0080047E607F009000DAB8
:100B4E00EEF0900142E0FCA3E0A3E0A3E09000DB16
:100B5E00ECF09001A47420F07401A3F0E4A3F090E3
:100B6E0001A77406F0E4A3F09000DC75F000121BF0
:100B7E00D87F0090011FE0FEC3EF9E50268F0574B4
:100B8E000A2DFD3395E0FCED24D8FDEC3400FCEF8E
:100B9E002418F582E43401F583E0FB8D828C83F01A
:100BAE000F80D0900160740A2EF0900161E4F0A3E2
:100BBE00F0A3F0900164F09000D875F000120EA131
:100BCE00E5826004758200229001697440F0900104
:100BDE006A74E8F07403A3F09000D875F000121058
:100BEE003C9000D8E060047582002275820122E5F7
:100BFE0082900150F09000D87440F09000D97401AA
:100C0E00F09000DA7430F0900150E09000DBF0903C
:100C1E0001607404F0900161E4F0A3F0A3F0900180
:100C2E0064F09000D875F000120EA1E58260047594
:100C3E008200229001697440F090016A74E8F074A9
:100C4E0003A3F09000D875F00012103C9000D8E08D
:100C5E0060047582002290014DE0FDA3E0FEA3E04A
:100C6E00FF9001A474D9F07400A3F0E4A3F09001F6
:100C7E00A77410F0E4A3F08D828E838FF0121BD830
:100C8E0075820122AF83E58290015DF0EFA3F090B3
:100C9E0000D8744AF09000D97401F09000DAF09008
:100CAE0000DBE4F090015DE0FEA3E0FD9000DCEDE2
:100CBE00F09000DDEEF0900151E09000DEF090003B
:100CCE00DFE4F09001607408F0900161E4F0A3F0AD
:100CDE00A3F0900164F09000D875F000120EA1E51B
:100CEE008260047582FF2290015BE0FEA3E0FF901C
:100CFE0001697416F090016AEEF0EFA3F09000D83F
:100D0E0075F00012103CAE82E58330E7047582FE6A
:100D1E00229000D8E0FF7003F58222BF010280040A
:100D2E007582FD229000D9E0900126F09000DAE065
:100D3E00FFBF12028009BF140280047582FC22904C
:100D4E000152E0F517A3E0F518A3E0F5199001554F
:100D5E00E0F511A3E0F512A3E0F5137800C007E863
:100D6E002517F514E43518F5158519168801740440
:100D7E0029FF3395E0FBEF24D8FFEB3400FB8F8285
:100D8E008B83E08514828515838516F0121E52E83A
:100D9E002427FAE43401FE8F828B83E08A828E83CD
:100DAE00F0E82511FDE43512FEAF13740C29F9336A
:100DBE0095E0FCE924D8F9EC3400FC89828C83E0C0
:100DCE00FB8D828E838FF0121E52E8242FFEE434A8
:100DDE0001FF89828C83E0F98E828F83F008B80838
:100DEE0000D0075003020D6BBF142E900158E0FD8A
:100DFE00A3E0FEA3E0FF9000ECE0FB7C009000ED92
:100E0E00E0F97A00E92CFCEA3BFB8D828E838FF0B1
:0D0E1E00EC121E52A3EB121E52758201222F
:100E2C0090015FE4F0758255121EAB758255121E4F
:100E3C00AB7E007F00C3EE940EEF6480948050155F
:100E4C00758200C007C006121EABD006D0070EBEBE
:100E5C0000E30F80E07582FF121EAB758203121E39
:100E6C00AB7582FD121EAB7582D4121EAB7582144B
:100E7C00121EAB758201121EAB758217121EAB755A
:100E8C008200121EAB121F3E121F3EE5826005123D
:100E9C001F5480F422AFF0AE83E582900165F0EE32
:100EAC00A3F0EFA3F0121F3E121F3EE58260051265
:100EBC001F5480F4900165E0FDA3E0FEA3E0FF8DDC
:100ECC00828E838FF01222BC90015FF0758200C07D
:100EDC0007C006C005121EAB758200121EAB7582D0
:100EEC00FF121EAB900164E0FC900160E0FB2CFA59
:100EFC000A8A82C004C003C002121EABD002EAF4FC
:100F0C00FA0A8A82121EAB7582D4121EABD003D0A1
:100F1C0004D005D006D00790016874D4F08D228ED1
:100F2C00238F2479007A008B007F00C3E998EA6450
:100F3C00808FF063F08095F05033C003E92522F8E0
:100F4C00EA3523FBAF2488828B838FF01222BCF509
:100F5C0082C004C003C002C001121EABD001D0027B
:100F6C00D003D00409B900010AD00380BA900165FE
:100F7C00E0FDA3E0FEA3E0FF7A00C3EA9B501FC094
:100F8C0003EA2DF8E43EF98F03888289838BF012F3
:100F9C0022BCF8900168E028F00AD00380DC9001B4
:100FAC0061E0FDA3E0FEA3E0FF7A007B008C0079FA
:100FBC0000C3EA98EB648089F063F08095F05039B7
:100FCC00C004EA2DF8EB3EF98F04888289838CF0FB
:100FDC001222BCF582C007C006C005C004C003C005
:100FEC0002121EABD002D003D004D005D006D0071D
:100FFC000ABA00010BD00480B47B00C3EB9C501BDD
:10100C00EB2DF8E43EF98F02888289838AF0122254
:10101C00BCF8900168E028F00B80E0900168E0F4E7
:10102C00FF0F8F82121EAB758200121EAB021231A3
:10103C00AFF0AE83E58290016CF0EEA3F0EFA3F07D
:10104C0090016AE0FEA3E0FF9001827403F0E4A338
:10105C00F0900184EEF0EFA3F090016F75F000C0FA
:10106C0007C0061212ABAD82D006D007C374808DB8
:10107C00F063F08095F0400490FFFE2290016FE049
:10108C007010900170E0700A900171E0FDBDFF02DC
:10109C00800490FFFD229001827402F0E4A3F09092
:1010AC000184EEF0EFA3F090017275F000C007C060
:1010BC00061212ABAD82D006D007C374808DF063DC
:1010CC00F08095F0400490FFFE22900172E0FD90BC
:1010DC000173E02D600490FFFD221D1D900172ED47
:1010EC00F0E0FD900169E0C39D500490FFFC22905C
:1010FC00015FE090017404F09001827402F0E4A3AB
:10110C00F0900184EEF0EFA3F090016F75F000C049
:10111C0007C0061212ABAD82D006D007C374808D07
:10112C00F063F08095F0400490FFFE2290016FE098
:10113C00FDBDD50F900170E0FD900174E0FCB5058C
:10114C0002800490FFFD2290016CE0FAA3E0FBA367
:10115C00E0FD900172E0900182F0E4A3F090018434
:10116C00EEF0EFA3F08A828B838DF0C007C006C02F
:10117C00041212ABAD82D004D006D007ED3395E04B
:10118C00FB900172E0F97A00EDB50106EBB50202B5
:10119C00800490FFFE2290017574D52CF090016CA8
:1011AC00E0FBA3E0FCA3E0FD7A00900172E0F9C340
:1011BC00EA995023C006C007EA2BF8E43CF98D07E6
:1011CC00888289838FF01222BCF8900175E028F098
:1011DC000AD007D00680D39001827402F0E4A3F009
:1011EC00900184EEF0EFA3F090016F75F0001212F5
:1011FC00ABAF82C374808FF063F08095F0400490A5
:10120C00FFFE2290016FE0FF900175E02F700690B9
:10121C000170E0600490FFFD22900172E0FF7E00FF
:10122C008F828E8322900176E4F0900177F090010A
:10123C007814F0900179E4F090017A14F090017B2D
:10124C00E4F09001827406F0E4A3F0900184740A37
:10125C00F0E4A3F090017C75F0001212ABAF82C3E6
:10126C0074808FF063F08095F040047582FE2290BC
:10127C0001D17476F07401A3F0E4A3F09001D4745E
:10128C0006F0E4A3F090017C75F0001220B5E58225
:10129C008583F045F060047582FF2275820022AFD1
:1012AC00F0AE83E582900186F0EEA3F0EFA3F09010
:1012BC000189E4F0A3F090018BF0A3F0900184E09D
:1012CC00FEA3E0FF900186E0F52BA3E0F52CA3E054
:1012DC00F52D900182E0F9A3E0FAE4F525F526C39B
:1012EC00E52599E52664808AF063F08095F040034B
:1012FC000213F8C007C006C002C001121CF485829C
:10130C002785832885F029F52AD001D002D006D074
:10131C0007C007C006C002C001121F3EE582D00103
:10132C00D002D006D007601FC007C006C002C001A3
:10133C00121F54A882D001D002D006D00790018B86
:10134C00E8F0E4A3F0804DEE4F60C6C001C002C0CF
:10135C0007C006121CF4A882A983AAF0FDD006D0FF
:10136C0007E8C39527F52EE99528F52FEA9529F579
:10137C0030ED952AF5318E028F037C007D00C3E59C
:10138C002E9AE52F9BE5309CE5319DD002D0015083
:10139C000302131D90018BE0FCA3E0FD30E71A90D3
:1013AC000189E0F8A3E0900189E0F5F0A3E045F0B5
:1013BC0060038882227582FE22C001C002E52525C9
:1013CC002BF8E526352CFAAB2D88828A838BF0EC32
:1013DC00121E520525E4B525020526900189E52546
:1013EC00F0E526A3F0D002D0010212EBAF258F82DC
:0113FC0022CE
:1013FE00AFDBBF080280030217F9900007E0FE7F03
:10140E0000900006E0FD7C004FF51AEC4EF51B7FB8
:10141E0000900001E0F51C900254E4F0900000E012
:10142E00FE54606067900000E0FE5306607D00BED3
:10143E002005BD0002800BBE404DBD004A7FFF025D
:10144E0017FB7401B51C030217FB7403B51C028055
:10145E00177409B51C030217FB740AB51C03021797
:10146E00FB740BB51C1C800E900255E0FE90000024
:10147E00F07F010217FB900002E0FE900255F00291
:10148E0017FB7FFF0217FB7FFF0217FBE51C24F4FF
:10149E0050030217F5E51C240B83F582E51C24107E
:1014AE0083F583E473D705F5C5F5CFCBF5DCF9FBF2
:1014BE00FB17161716171514171515171790000387
:1014CE00E0FEBE01028011BE02028016BE03028043
:1014DE001BBE220280638079751D57751E247F12F4
:1014EE008071751D69751E247F298067900002E04A
:1014FE007008751DE4751E248034900002E0FEBE57
:10150E000108751D10751E258024900002E0FEBE98
:10151E000208751DFC751E248014900002E0FEBEAC
:10152E000308751DE8751E2480047FFF8025851D28
:10153E0082851E83E493FF801A900002E0700E7580
:10154E001D92751E24902482E493FF80067FFF80F7
:10155E00027FFFBFFF030217FB8F057E00C3ED95D1
:10156E001AEE951B50048D1A8E1BAD1AAE1BC3EDD1
:10157E009440EE9400920240067B407C008004ABC7
:10158E001AAC1B8B077C00C3EC9F50198C027B009E
:10159E00EC251DF582E4351EF583E493F98A828BE2
:1015AE0083F00C80E28F037C00EDC39BFDEE9CFE6E
:1015BE008D1A8E1BEF251DF51DE4351EF51E021727
:1015CE00FB900002E0FE8E1A751B000217FB9001C5
:1015DE00A2E0900000F0AD1AAE1BC3ED9401EE94A4
:1015EE000050030217FB7F010217FB900002E0FE82
:1015FE009001A2F00217FB900000E0541F702F9094
:10160E000003E0FD7E00900002E0FC7B004206EB52
:10161E004205BE0114BD0011902470E493FE30E526
:10162E00030217FB7FFF0217FB7FFF0217FB9000E1
:10163E0000E0FE53061F7D00BE0277BD00749000D1
:10164E0004E0FEBE0102805FBE02028049BE0302BC
:10165E008033BE0402801DBE81028040BE820280A5
:10166E002ABE83028014BE844474BC55DE4402F547
:10167E00DE0217FB53DE730217FB74BC55D6440211
:10168E00F5D60217FB53D6730217FB74BC55D44420
:10169E0002F5D40217FB53D4730217FB74BC55D258
:1016AE004402F5D20217FB53D2730217FB7FFF02DF
:1016BE0017FB7FFF0217FB900000E0541F702F9066
:1016CE000003E0FD7E00900002E0FC7B004206EB92
:1016DE004205BE0114BD0011902470E493FE30E566
:1016EE00030217FB7FFF0217FB7FFF0217FB900021
:1016FE0000E0FE53061F7D00BE0205BD0002800302
:10170E000217D3900003E0FD7E00900002E0FC7B08
:10171E00004206EB4205EE4D60030217CF90000526
:10172E00E0FD7E00900004E0FC7B004206EB4205EB
:10173E00BE0106BD00030217C3BE0205BD00028036
:10174E0060BE0305BD00028044BE0405BD000280DC
:10175E0028BE8105BD00028052BE8205BD000280FA
:10176E0036BE8305BD0002801ABE8451BD004E7484
:10177E00BF55DE4403F5DE8074747F55DE440CF5F0
:10178E00DE806A74BF55D64403F5D68060747F55EB
:10179E00D6440CF5D6805674BF55D44403F5D48088
:1017AE004C747F55D4440CF5D4804274BF55D2444A
:1017BE0003F5D28038747F55D2440CF5D27FFF806A
:1017CE002C7FFF80287FFF8024900000E4F09000A3
:1017DE0001F0AD1AAE1BC3ED9402EE940040047FEF
:1017EE0002800AAF1A80067FFF80027FFFBFFF07CD
:1017FE00751CFF75DCCF22EF24BF40068FDD75DC34
:10180E00C02275DD0075DCC0227405B51C02805D3A
:10181E007406B51C66AE1AAF1BC3EE9440EF94006F
:10182E00920340067C407D008004AC1AAD1B7D0007
:10183E00C3ED9C50198D027B00ED251DF582E4351C
:10184E001EF583E493F98A828B83F00D80E28C037C
:10185E007D00EEC39BFEEF9DFF8E1A8F1BEC251DA8
:10186E00F51DE4351EF51E8CDD63DC4022E5E354E8
:10187E0080FFE51A4FF5E375DC022275DD0075DC9D
:10188E0002227409B51C09900000E0FF900256F088
:10189E0075DD0063DC802220D90302194AE5D95494
:1018AE000FFFADD95305307E00BD0005BE0002808E
:1018BE001BBD1005BE00028035BD2005BE00028096
:1018CE0042BD3005BE00028059021948EF24FB507C
:1018DE0003021948EF2F9018E8738008800B805A86
:1018EE00805880561218908051120699804CEF2421
:1018FE00FB4047EF2F90190773803F803D803B8060
:10190E00398037EF24FB4032EF2F90191C7380087B
:10191E00800B802680248022121817801D120688C4
:10192E008018EF24FB4013EF2F90193B7380088033
:10193E00098007800580031213FEC2D930D81475B2
:10194E00DC0275D21275E300C2DAC2D9C2D8900198
:10195E00A2E4F010DA0122E5DA20E20375D8FF22C4
:10196E0075E20053E27F43E22975E30053E2BF5371
:10197E00D1FB75D18043D1012243E10443E10243FF
:10198E00E10143D81FD2EAD2AF227E007F008EEC57
:10199E008FED7E0A7F008EEE8FEF75D21275EAC044
:0419AE0075DC0222C0
:1019B200AF82BF800040012275A15575A1AA43B133
:1019C2000475A1007585C0EF2FF5849001A3E0F5A1
:1019D2008EE58630E60375869A75A15575A1AA53E0
:1019E200B1FB75A10022AF827585C0EF2FF584751A
:0619F200868E858E822224
:1019F800C021C0E0C0F0C082C083C007C006C005D7
:101A0800C004C003C002C001C000C0D075D000121D
:101A180018A5D0D0D000D001D002D003D004D00572
:101A2800D006D007D083D082D0F0D0E0D02132C009
:101A380021C0E0C0F0C082C083C007C006C005C096
:101A480004C003C002C001C000C0D075D0003098E7
:101A5800051223C5C298309905122405C299D0D021
:101A6800D000D001D002D003D004D005D006D007D2
:101A7800D083D082D0F0D0E0D02132C021C0E0C0E5
:101A8800F0C082C083C007C006C005C004C003C040
:101A980002C001C000C0D075D00030C0051220259A
:101AA800C2C030C105122065C2C1D0D0D000D0015B
:101AB800D002D003D004D005D006D007D083D0827E
:101AC800D0F0D0E0D02132C021C0E0C0F0C082C048
:101AD80083C007C006C005C004C003C002C001C05F
:101AE80000C0D075D00090025DE0FEA3E0FFC00703
:101AF800C0068E828F83120069D006D007D0D0D05E
:101B080000D001D002D003D004D005D006D007D031
:101B180083D082D0F0D0E0D02132C021C0E0C0F024
:101B2800C082C083C007C006C005C004C003C0028D
:101B3800C001C000C0D075D00090025FE0FEA3E0F5
:101B4800FFC007C0068E828F83120069D006D007B7
:101B5800D0D0D000D001D002D003D004D005D00618
:101B6800D007D083D082D0F0D0E0D02132C021C0BD
:101B7800E0C0F0C082C083C007C006C005C004C072
:101B880003C002C001C000C0D075D000900257E069
:101B9800FEA3E04E600E900257E0F8A3E0F58388BC
:101BA80082120069D0D0D000D001D002D003D00476
:101BB800D005D006D007D083D082D0F0D0E0D02195
:101BC80032121E1D1201AC1205F280FB7582002232
:101BD800AFF0AE83E5829001A9F0EEA3F0EFA3F099
:101BE8009001A9E0F53EA3E0F53FA3E0F540AA3E49
:101BF800AB3FAC409001A4E0F8A3E0F9A3E0FF906C
:101C080001A7E0F541A3E0F542AD41AE42154174AC
:101C1800FFB541021542ED4E6020888289838FF01E
:101C28001222BCFEA3A882A9838A828B838CF0EE41
:101C3800121E52A3AA82AB8380CF853E82853F8342
:101C48008540F022AC82AD839001ADE0FEA3E0FFB9
:101C5800BE000360121F0F9001ACE08C828D8312CE
:0C1C68001E52A3DEFADFF88C828D83226E
:101C7400C0D075D00808B8000D09B900090ABA0027
:101C8400050BBB00010CD0D032A2AFC2AFA808A98B
:101C940009AA0AAB0BAC8A8588F092AF30F51274AE
:101CA400012C600D08B8000909B900050ABA000141
:101CB4000BC3EC9406FCECC313FC75F07DE8A4F8AC
:101CC400ADF075F07DE9A42DF9E435F0FD75F07DF6
:101CD400EAA42DFAE435F0FD75F07DEBA42DFB7D2F
:101CE40000EC28F582E93DF583EA3DF5F0EB3D2271
:101CF400A2AFC2AFA808A909AA0AAB0BAC0C92AF59
:101D040075F020E8A4A8F075F020E9A428F582A8CD
:101D1400F075F020EAA428F583A8F075F020EBA470
:101D240028F9A8F075F020ECA42889F022858232E5
:101D340085833385F034F535121C8D858236858391
:101D44003785F038F539E53245334534453570018A
:101D540022A832A933AA34AB3585363A85373B8578
:101D6400383C85393DE8494A4B60DBC003C002C0BA
:101D740001C000121C8DAC82AD83AEF0FFD000D048
:101D840001D002D003ECC3953AFCED953BFDEE95F2
:101D94003CFEEF953DFFC3EC94E8ED9403EE940014
:101DA400EF940040A118B8FF0919B9FF051ABAFF4A
:101DB400011B883289338A348B3574E8253AF53A25
:101DC4007403353BF53BE4353CF53CE4353DF53DEA
:101DD400853A36853B37853C38853D398087AE82E8
:101DE400AF83C374019EE49F40022200C374029E29
:101DF400FE74009FFF00BE0005BF00020022000029
:101E04000000000000000000000000000000000EC0
:101E1400BE00EB0FBF00ED002275A15575A1AA7499
:101E2400F855B94406F5B975A100901388121DE25E
:101E3400759E5D759D0074F055894402F58953C9FA
:0D1E4400EF758C06C28DD2A9D28CD2AF22D0
:101E520020F71130F6138883A88220F509F6A883AB
:101E62007583002280FEF280F5F0229001B0E0F549
:101E72008222AC82AD83AEF0FFC2C7D2C5D2C4C04B
:101E820004C005C006C00790E36075F016E4122195
:101E920096AC82E58124FCF581C3E49CF5C2D2ECC8
:101EA200D2AF9001B07401F022AF82A2AFE433FE50
:101EB200C2AF90025BE0FD90025CE0FCEDB5041065
:101EC20020040DD2048FC1EE6002D2AF75820122CE
:101ED20090025BE0FD0D53050F7B007C0090025CDD
:101EE200E0FAEDB50235EE6002D2AF0BBB00010C99
:101EF200900005C007C006C005C004C003121DE261
:101F0200D003D004D005D006D0078B018C02C3E9E0
:101F12009420EA944E40C67582002290025BE0242F
:101F2200C1F582E43401F583EFF090025BEDF0EE4F
:101F32006002D2AF758201222004FD22900259E094
:101F42002410FF90025AE0FEEFC39EFF53070F8F4B
:101F52008222900259E02410FF90025AE0FEEFC361
:101F62009E540F601C90025AE024B1F582E43401C1
:101F7200F583E0FF90025AE0FE0E740F5EF08F824E
:101F82002275820022C01F85811FC082C083E58125
:101F92002405F581AF1F0FE51F2403F8A607087675
:101FA20000087640E51F24FCFD7E007F40E51F24EB
:101FB20006F9A81F088604E51F24FCF886038CF0A6
:101FC200EBA4F709A7F0E51F240604F98704A81F6C
:101FD20008860374012DFAE43EFE8A828E838FF016
:101FE2001222BC8BF0A4FBE51F2403F8740126FD2A
:101FF200E40836FE0886078D828E838FF01222BC9B
:10200200FDE51F24FCF886078DF0EFA42B2CF7E5E5
:102012001F2406F987060987078E828F83851F8111
:03202200D01F22AA
:10202500900259E0FF7E000FBF00010E7410C0E062
:10203500E4C0E08F828E831222D8AE82158115818D
:1020450090025AE0FFEEB5070122900259E024B153
:10205500F582E43401F583E5C1F0900259EEF022F2
:1020650030044A90025BE0FF90025CE0FEEFB506AB
:1020750005A204C2042290025CE024C1F582E43486
:1020850001F583E0F5C190025CE0FF7E000FBF0023
:10209500010E7410C0E0E4C0E08F828E831222D856
:0E20A500AE82AF831581158190025CEEF022B1
:0120B30032FA
:1020B500AFF0AE83E5829001D6F0EEA3F0EFA3F08A
:1020C5009001D4E0FEA3E0FF9001D4E0F5F0A3E099
:1020D50045F07004900000221EBEFF011FEE4F6008
:1020E50075C006C0079001D6E0FBA3E0FCA3E0FDA8
:1020F5008B008C018D02888289838AF01222BCF8BC
:102105009001D1E0F53EA3E0F53FA3E0F540A93EFF
:10211500AA3FAF4089828A838FF01222BCF9E8B5C5
:1021250001028006D007D006802CD007D0060BBB55
:1021350000010C9001D6EBF0ECA3F0EDA3F0AB3E63
:10214500AC3FAD400BBB00010C9001D1EBF0ECA313
:10215500F0EDA3F080829001D6E0FDA3E0FEA3E0C0
:10216500FF8D828E838FF01222BCFD7F009001D1FE
:10217500E0FBA3E0FCA3E0FE8B828C838EF01222B1
:10218500BCFB7E00EDC39BFDEF9E8D82F583223265
:10219600C01F85811FC082C083C0F0C0E07A007B6B
:1021A600007E007F007D20A81F08080808E623544B
:1021B60001FCA81F08E626F608E633F608E633F61D
:1021C60008E633F6EA2AFAEB33FBEE33FEEF33FF8B
:1021D600EC6003430201E51F24FAF8C3EA96EB0814
:1021E60096EE0896EF0896401CE51F24FAF8EAC317
:1021F60096FAEB0896FBEE0896FEEF0896FFA81FE8
:1022060008E64401F6DDA0A81F0886820886830832
:1022160086F008E6851F81D01F22ABF0A2AFE4331B
:10222600FEC2AFE0A37A0833D2954002C295790583
:0E223600D9FEC295DAF1DBEBEE6002D2AF22E8
:1022440022AF82BF0200503EEF75F002A4245DFD70
:10225400740235F0FE9001D9E0FBA3E0FC8D828E80
:1022640083EBF0ECA3F0BF00028005BF0118800BE4
:102274009001DBE024FF9288D2A8229001DBE0FFEA
:1022840024FF928AD2AA22AF82BF02005028BF0044
:10229400028005BF01088004C2A88002C2AAEF75AB
:1022A400F002A4245DFE740235F0FF8E828F8374E5
:0722B40044F07422A3F022A4
:1022BC0020F71430F6148883A88220F507E6A8834B
:1022CC0075830022E280F7E49322E022C01F85810F
:1022DC001FAE82E583FF33E433FD6009C3E49EFB4C
:1022EC00E49FFC80048E038F04E51F24FCF808E6B1
:1022FC0030E70FE51F24FCF8C3E496FE08E496FFD4
:10230C00800AE51F24FCF88606088607C005C0066F
:10231C00C0078B828C83122346AE82AF8315811546
:10232C0081D005ED600DC3E49EFCE49FFD8C828D95
:10233C008380048E828F83D01F22C01F85811FAEA5
:10234C0082AF837D007C00E51F24FCF808E6235453
:10235C0001FB702FE51F24FCF8E626F608E633F6A1
:10236C00E51F24FCF8C3EE96EF08965011E51F24E8
:10237C00FCF808E618C313C613C608F680050C8CC7
:10238C000580C4E51F24FCF8C3EE96EF0896400DBB
:10239C00E51F24FCF8EEC396FEEF0896FFE51F241C
:1023AC00FCF808E618C313C613C608F68D041DEC1A
:0923BC0070D18E828F83D01F22A4
:1023C500900261E0FF7E000FBF00010E7410C0E0B7
:1023D500E4C0E08F828E831222D8AE8215811581EA
:1023E500900262E0FFEEB5070122900261E024DC75
:1023F500F582E43401F583E599F0900261EEF0226F
:1024050030054A900263E0FF900264E0FEEFB506F6
:1024150005A205C20522900264E024ECF582E434AD
:1024250001F583E0F599900264E0FF7E000FBF009F
:10243500010E7410C0E0E4C0E08F828E831222D8B2
:0E244500AE82AF8315811581900264EEF02205
:04245300758200226C
:1024570012011001000000403A30F0810001010232
:102467000301090229000101008064090400000238
:102477000300000009211001000122520007058115
:102487000340000A0705010340000A06CAFF0901C5
:10249700A101850206CAFF0941150025FF750895A8
:1024A700088102C005010900A1018501950B750886
:1024B700150026FF00050C1969296B9102190129DE
:1024C700038102850395107508150026FF00050096
:1024D700190129039102190129038102C004030983
:1024E70004140341006B0061007200690020004E74
:1024F7000045005700140341006B0061007200693A
:102507000020004E00450057000E035300450049C8
:07251700004B0041004E00E3
:10251E00C91B5743434676326090D00632F5FFFF13
:10252E00FFFFFFFF000000000000000000000000A1
:10253E00000000000000000000000000000000008D
:10254E00000000000000000000000000000000007D
:10255E00000000000000000000000000000000006D
:08256E00000000000000000065
:0325760000010061
:02257900000060
:04257B00000000005C
:04257F00442244228C
:042583000000000054
:00000001FF
